{
  "address": "0x2e3bD83CAe006A14BcDd2b79e2b8Ac50962C78dE",
  "abi": [
    {
      "inputs": [
        {
          "internalType": "address",
          "name": "_owner",
          "type": "address"
        }
      ],
      "stateMutability": "nonpayable",
      "type": "constructor"
    },
    {
      "anonymous": false,
      "inputs": [
        {
          "indexed": true,
          "internalType": "address",
          "name": "owner",
          "type": "address"
        },
        {
          "indexed": true,
          "internalType": "address",
          "name": "approved",
          "type": "address"
        },
        {
          "indexed": true,
          "internalType": "uint256",
          "name": "tokenId",
          "type": "uint256"
        }
      ],
      "name": "Approval",
      "type": "event"
    },
    {
      "anonymous": false,
      "inputs": [
        {
          "indexed": true,
          "internalType": "address",
          "name": "owner",
          "type": "address"
        },
        {
          "indexed": true,
          "internalType": "address",
          "name": "operator",
          "type": "address"
        },
        {
          "indexed": false,
          "internalType": "bool",
          "name": "approved",
          "type": "bool"
        }
      ],
      "name": "ApprovalForAll",
      "type": "event"
    },
    {
      "anonymous": false,
      "inputs": [
        {
          "indexed": false,
          "internalType": "string",
          "name": "name",
          "type": "string"
        },
        {
          "indexed": false,
          "internalType": "string",
          "name": "avatarStyle",
          "type": "string"
        },
        {
          "indexed": false,
          "internalType": "string",
          "name": "topType",
          "type": "string"
        },
        {
          "indexed": false,
          "internalType": "string",
          "name": "hairColor",
          "type": "string"
        },
        {
          "indexed": false,
          "internalType": "string",
          "name": "eyebrowType",
          "type": "string"
        },
        {
          "indexed": false,
          "internalType": "string",
          "name": "eyeType",
          "type": "string"
        },
        {
          "indexed": false,
          "internalType": "string",
          "name": "accessoriesType",
          "type": "string"
        },
        {
          "indexed": false,
          "internalType": "string",
          "name": "mouthType",
          "type": "string"
        },
        {
          "indexed": false,
          "internalType": "string",
          "name": "facialHairType",
          "type": "string"
        },
        {
          "indexed": false,
          "internalType": "string",
          "name": "clotheType",
          "type": "string"
        },
        {
          "indexed": false,
          "internalType": "string",
          "name": "clotheColor",
          "type": "string"
        },
        {
          "indexed": false,
          "internalType": "string",
          "name": "graphicType",
          "type": "string"
        },
        {
          "indexed": false,
          "internalType": "uint256",
          "name": "destinationChain",
          "type": "uint256"
        },
        {
          "indexed": false,
          "internalType": "uint256",
          "name": "srcChain",
          "type": "uint256"
        },
        {
          "indexed": false,
          "internalType": "address",
          "name": "mintFor",
          "type": "address"
        }
      ],
      "name": "CreateMintRequest",
      "type": "event"
    },
    {
      "anonymous": false,
      "inputs": [
        {
          "indexed": true,
          "internalType": "address",
          "name": "previousOwner",
          "type": "address"
        },
        {
          "indexed": true,
          "internalType": "address",
          "name": "newOwner",
          "type": "address"
        }
      ],
      "name": "OwnershipTransferred",
      "type": "event"
    },
    {
      "anonymous": false,
      "inputs": [
        {
          "indexed": true,
          "internalType": "address",
          "name": "from",
          "type": "address"
        },
        {
          "indexed": true,
          "internalType": "address",
          "name": "to",
          "type": "address"
        },
        {
          "indexed": true,
          "internalType": "uint256",
          "name": "tokenId",
          "type": "uint256"
        }
      ],
      "name": "Transfer",
      "type": "event"
    },
    {
      "inputs": [
        {
          "internalType": "address",
          "name": "to",
          "type": "address"
        },
        {
          "internalType": "uint256",
          "name": "tokenId",
          "type": "uint256"
        }
      ],
      "name": "approve",
      "outputs": [],
      "stateMutability": "nonpayable",
      "type": "function"
    },
    {
      "inputs": [
        {
          "internalType": "address",
          "name": "owner",
          "type": "address"
        }
      ],
      "name": "balanceOf",
      "outputs": [
        {
          "internalType": "uint256",
          "name": "",
          "type": "uint256"
        }
      ],
      "stateMutability": "view",
      "type": "function"
    },
    {
      "inputs": [
        {
          "internalType": "string",
          "name": "name",
          "type": "string"
        },
        {
          "internalType": "string",
          "name": "avatarStyle",
          "type": "string"
        },
        {
          "internalType": "string",
          "name": "topType",
          "type": "string"
        },
        {
          "internalType": "string",
          "name": "hairColor",
          "type": "string"
        },
        {
          "internalType": "string",
          "name": "eyebrowType",
          "type": "string"
        },
        {
          "internalType": "string",
          "name": "eyeType",
          "type": "string"
        },
        {
          "internalType": "string",
          "name": "accessoriesType",
          "type": "string"
        },
        {
          "internalType": "string",
          "name": "mouthType",
          "type": "string"
        },
        {
          "internalType": "string",
          "name": "facialHairType",
          "type": "string"
        },
        {
          "internalType": "string",
          "name": "clotheType",
          "type": "string"
        },
        {
          "internalType": "string",
          "name": "clotheColor",
          "type": "string"
        },
        {
          "internalType": "string",
          "name": "graphicType",
          "type": "string"
        },
        {
          "internalType": "uint256",
          "name": "destinationChain",
          "type": "uint256"
        },
        {
          "internalType": "uint256",
          "name": "srcChain",
          "type": "uint256"
        },
        {
          "internalType": "address",
          "name": "mintFor",
          "type": "address"
        }
      ],
      "name": "createMintRequest",
      "outputs": [],
      "stateMutability": "nonpayable",
      "type": "function"
    },
    {
      "inputs": [
        {
          "internalType": "uint256",
          "name": "_id",
          "type": "uint256"
        },
        {
          "internalType": "string",
          "name": "name",
          "type": "string"
        },
        {
          "internalType": "string",
          "name": "avatarStyle",
          "type": "string"
        },
        {
          "internalType": "string",
          "name": "topType",
          "type": "string"
        },
        {
          "internalType": "string",
          "name": "hairColor",
          "type": "string"
        },
        {
          "internalType": "string",
          "name": "eyebrowType",
          "type": "string"
        },
        {
          "internalType": "string",
          "name": "eyeType",
          "type": "string"
        },
        {
          "internalType": "string",
          "name": "accessoriesType",
          "type": "string"
        },
        {
          "internalType": "string",
          "name": "mouthType",
          "type": "string"
        },
        {
          "internalType": "string",
          "name": "facialHairType",
          "type": "string"
        },
        {
          "internalType": "string",
          "name": "clotheType",
          "type": "string"
        },
        {
          "internalType": "string",
          "name": "clotheColor",
          "type": "string"
        },
        {
          "internalType": "string",
          "name": "graphicType",
          "type": "string"
        }
      ],
      "name": "editAvatar",
      "outputs": [],
      "stateMutability": "nonpayable",
      "type": "function"
    },
    {
      "inputs": [
        {
          "internalType": "uint256",
          "name": "tokenId",
          "type": "uint256"
        }
      ],
      "name": "getApproved",
      "outputs": [
        {
          "internalType": "address",
          "name": "",
          "type": "address"
        }
      ],
      "stateMutability": "view",
      "type": "function"
    },
    {
      "inputs": [
        {
          "internalType": "address",
          "name": "owner",
          "type": "address"
        },
        {
          "internalType": "address",
          "name": "operator",
          "type": "address"
        }
      ],
      "name": "isApprovedForAll",
      "outputs": [
        {
          "internalType": "bool",
          "name": "",
          "type": "bool"
        }
      ],
      "stateMutability": "view",
      "type": "function"
    },
    {
      "inputs": [
        {
          "internalType": "string",
          "name": "name",
          "type": "string"
        },
        {
          "internalType": "string",
          "name": "avatarStyle",
          "type": "string"
        },
        {
          "internalType": "string",
          "name": "topType",
          "type": "string"
        },
        {
          "internalType": "string",
          "name": "hairColor",
          "type": "string"
        },
        {
          "internalType": "string",
          "name": "eyebrowType",
          "type": "string"
        },
        {
          "internalType": "string",
          "name": "eyeType",
          "type": "string"
        },
        {
          "internalType": "string",
          "name": "accessoriesType",
          "type": "string"
        },
        {
          "internalType": "string",
          "name": "mouthType",
          "type": "string"
        },
        {
          "internalType": "string",
          "name": "facialHairType",
          "type": "string"
        },
        {
          "internalType": "string",
          "name": "clotheType",
          "type": "string"
        },
        {
          "internalType": "address",
          "name": "_mintFor",
          "type": "address"
        }
      ],
      "name": "mintItem",
      "outputs": [
        {
          "internalType": "uint256",
          "name": "",
          "type": "uint256"
        }
      ],
      "stateMutability": "nonpayable",
      "type": "function"
    },
    {
      "inputs": [
        {
          "internalType": "address",
          "name": "_addr",
          "type": "address"
        }
      ],
      "name": "myAvatars",
      "outputs": [
        {
          "internalType": "uint256[]",
          "name": "",
          "type": "uint256[]"
        }
      ],
      "stateMutability": "view",
      "type": "function"
    },
    {
      "inputs": [],
      "name": "name",
      "outputs": [
        {
          "internalType": "string",
          "name": "",
          "type": "string"
        }
      ],
      "stateMutability": "view",
      "type": "function"
    },
    {
      "inputs": [],
      "name": "owner",
      "outputs": [
        {
          "internalType": "address",
          "name": "",
          "type": "address"
        }
      ],
      "stateMutability": "view",
      "type": "function"
    },
    {
      "inputs": [
        {
          "internalType": "uint256",
          "name": "tokenId",
          "type": "uint256"
        }
      ],
      "name": "ownerOf",
      "outputs": [
        {
          "internalType": "address",
          "name": "",
          "type": "address"
        }
      ],
      "stateMutability": "view",
      "type": "function"
    },
    {
      "inputs": [],
      "name": "renounceOwnership",
      "outputs": [],
      "stateMutability": "nonpayable",
      "type": "function"
    },
    {
      "inputs": [
        {
          "internalType": "address",
          "name": "from",
          "type": "address"
        },
        {
          "internalType": "address",
          "name": "to",
          "type": "address"
        },
        {
          "internalType": "uint256",
          "name": "tokenId",
          "type": "uint256"
        }
      ],
      "name": "safeTransferFrom",
      "outputs": [],
      "stateMutability": "nonpayable",
      "type": "function"
    },
    {
      "inputs": [
        {
          "internalType": "address",
          "name": "from",
          "type": "address"
        },
        {
          "internalType": "address",
          "name": "to",
          "type": "address"
        },
        {
          "internalType": "uint256",
          "name": "tokenId",
          "type": "uint256"
        },
        {
          "internalType": "bytes",
          "name": "data",
          "type": "bytes"
        }
      ],
      "name": "safeTransferFrom",
      "outputs": [],
      "stateMutability": "nonpayable",
      "type": "function"
    },
    {
      "inputs": [
        {
          "internalType": "address",
          "name": "operator",
          "type": "address"
        },
        {
          "internalType": "bool",
          "name": "approved",
          "type": "bool"
        }
      ],
      "name": "setApprovalForAll",
      "outputs": [],
      "stateMutability": "nonpayable",
      "type": "function"
    },
    {
      "inputs": [
        {
          "internalType": "bytes4",
          "name": "interfaceId",
          "type": "bytes4"
        }
      ],
      "name": "supportsInterface",
      "outputs": [
        {
          "internalType": "bool",
          "name": "",
          "type": "bool"
        }
      ],
      "stateMutability": "view",
      "type": "function"
    },
    {
      "inputs": [],
      "name": "symbol",
      "outputs": [
        {
          "internalType": "string",
          "name": "",
          "type": "string"
        }
      ],
      "stateMutability": "view",
      "type": "function"
    },
    {
      "inputs": [
        {
          "internalType": "uint256",
          "name": "id",
          "type": "uint256"
        }
      ],
      "name": "tokenURI",
      "outputs": [
        {
          "internalType": "string",
          "name": "",
          "type": "string"
        }
      ],
      "stateMutability": "view",
      "type": "function"
    },
    {
      "inputs": [
        {
          "internalType": "address",
          "name": "from",
          "type": "address"
        },
        {
          "internalType": "address",
          "name": "to",
          "type": "address"
        },
        {
          "internalType": "uint256",
          "name": "tokenId",
          "type": "uint256"
        }
      ],
      "name": "transferFrom",
      "outputs": [],
      "stateMutability": "nonpayable",
      "type": "function"
    },
    {
      "inputs": [
        {
          "internalType": "address",
          "name": "newOwner",
          "type": "address"
        }
      ],
      "name": "transferOwnership",
      "outputs": [],
      "stateMutability": "nonpayable",
      "type": "function"
    }
  ],
  "transactionHash": "0x228895b4f22ad6e7aadc77ad3a2d475e331ed6d28503178bf196a21c8af5faa2",
  "args": [
    "0x0dB2bcd99F99270b0F864a36412A37c51Cb78830"
  ],
  "numDeployments": 1,
  "solcInputHash": "2ea0d33149ebcebeba343bfdc573d22b",
  "bytecode": "0x6080346200037b576001600160401b03601f19601f62002cff38819003828101841686018581118782101762000365578692829160405283396020958691810103126200037b57516001600160a01b039390848116036200037b576200006462000380565b9160068352654e494d42555360d01b868401526200008162000380565b9560038752624e494d60e81b8188015283519483861162000365576000958654956001968781811c911680156200035a575b858210146200034657908186849311620002f3575b5084908683116001146200029257899262000286575b5050600019600383901b1c191690861b1786555b8751938411620002725784548581811c9116801562000267575b8382101462000253578381116200020b575b5081928411600114620001a55750508394958293949262000199575b5050600019600383901b1c191690821b1790555b600654903360018060a01b03198316176006557f8be0079c531659141344cd1fd0a4f28419497f9722a3daafe3b4186f6b6457e0604051933393169180a361295e9081620003a18239f35b0151905038806200013a565b8392919216968486528286209286905b898210620001f3575050838596979810620001d9575b505050811b0190556200014e565b015160001960f88460031b161c19169055388080620001cb565b808785968294968601518155019501930190620001b5565b8587528287208480870160051c82019285881062000249575b0160051c019086905b8281106200023d5750506200011e565b8881550186906200022d565b9250819262000224565b634e487b7160e01b87526022600452602487fd5b90607f16906200010c565b634e487b7160e01b86526041600452602486fd5b015190503880620000de565b9084899416918a8052868b20928b5b88828210620002dc5750508411620002c2575b505050811b018655620000f2565b015160001960f88460031b161c19169055388080620002b4565b8385015186558c97909501949384019301620002a1565b9091508880528489208680850160051c8201928786106200033c575b918a91869594930160051c01915b8281106200032d575050620000c8565b8b81558594508a91016200031d565b925081926200030f565b634e487b7160e01b89526022600452602489fd5b90607f1690620000b3565b634e487b7160e01b600052604160045260246000fd5b600080fd5b60408051919082016001600160401b03811183821017620003655760405256fe60806040526004361015610013575b600080fd5b60003560e01c806301ffc9a7146101a357806306fdde031461019a578063081812fc14610191578063095ea7b31461018857806323b872dd1461017f5780633d0087cc1461017657806342842e0e1461016d5780636352211e1461016457806370a082311461015b578063715018a614610152578063768c8a0a146101495780638da5cb5b1461014057806395d89b4114610137578063a22cb4651461012e578063b88d4fde14610125578063c87b56dd1461011c578063d94719dc14610113578063e985e9c51461010a578063f20fd529146101015763f2fde38b146100f957600080fd5b61000e611066565b5061000e610f21565b5061000e610ec3565b5061000e610def565b5061000e610b9b565b5061000e610b3b565b5061000e610a4e565b5061000e6109a8565b5061000e61097e565b5061000e610852565b5061000e6107f3565b5061000e6107c7565b5061000e6107a8565b5061000e610761565b5061000e61060a565b5061000e610504565b5061000e6103f8565b5061000e61036d565b5061000e610289565b5061000e6101be565b6001600160e01b031981160361000e57565b503461000e57602036600319011261000e5760206004356101de816101ac565b63ffffffff60e01b166380ac58cd60e01b811490811561021c575b811561020b575b506040519015158152f35b6301ffc9a760e01b14905038610200565b635b5e139f60e01b811491506101f9565b60005b8381106102405750506000910152565b8181015183820152602001610230565b906020916102698151809281855285808601910161022d565b601f01601f1916010190565b906020610286928181520190610250565b90565b503461000e5760008060031936011261036a57604051908080546102ac8161126e565b8085529160019180831690811561034057506001146102e6575b6102e2856102d68187038261056d565b60405191829182610275565b0390f35b80809450527f290decd9548b62a8d60345a988386fc84ba6bc95484008f6362f93160ef3e5635b8284106103285750505081016020016102d6826102e26102c6565b8054602085870181019190915290930192810161030d565b8695506102e2969350602092506102d694915060ff191682840152151560051b82010192936102c6565b80fd5b503461000e57602036600319011261000e57602061038c60043561131a565b6040516001600160a01b039091168152f35b600435906001600160a01b038216820361000e57565b6101c435906001600160a01b038216820361000e57565b61014435906001600160a01b038216820361000e57565b602435906001600160a01b038216820361000e57565b503461000e57604036600319011261000e5761041261039e565b60243561041e8161124b565b916001600160a01b038084169082168114610480576104509361044b913314908115610452575b506112a8565b6116c1565b005b6001600160a01b0316600090815260056020908152604080832033845290915290205460ff16905038610445565b60405162461bcd60e51b815260206004820152602160248201527f4552433732313a20617070726f76616c20746f2063757272656e74206f776e656044820152603960f91b6064820152608490fd5b606090600319011261000e576001600160a01b0390600435828116810361000e5791602435908116810361000e579060443590565b503461000e57610450610516366104cf565b916105296105248433611486565b611358565b611558565b50634e487b7160e01b600052604160045260246000fd5b606081019081106001600160401b0382111761056057604052565b61056861052e565b604052565b90601f801991011681019081106001600160401b0382111761056057604052565b6020906001600160401b0381116105ab575b601f01601f19160190565b6105b361052e565b6105a0565b9291926105c48261058e565b916105d2604051938461056d565b82948184528183011161000e578281602093846000960137010152565b9080601f8301121561000e57816020610286933591016105b8565b503461000e576101e036600319011261000e5760046001600160401b03813581811161000e5761063d90369084016105ef565b60243582811161000e5761065490369085016105ef565b9060443583811161000e5761066c90369086016105ef565b9260643581811161000e5761068490369087016105ef565b9060843581811161000e5761069c90369088016105ef565b60a43582811161000e576106b390369089016105ef565b60c43583811161000e576106ca9036908a016105ef565b60e43584811161000e576106e19036908b016105ef565b906101043585811161000e576106fa9036908c016105ef565b926101243586811161000e576107139036908d016105ef565b946101443587811161000e578c61072c913691016105ef565b966101643590811161000e576104509c610748913691016105ef565b976107516103b4565b9b6101a4359b610184359b61185e565b503461000e57610450610773366104cf565b9060405192602084018481106001600160401b0382111761079b575b604052600084526113eb565b6107a361052e565b61078f565b503461000e57602036600319011261000e57602061038c60043561124b565b503461000e57602036600319011261000e5760206107eb6107e661039e565b611188565b604051908152f35b503461000e5760008060031936011261036a5761080e611130565b600680546001600160a01b0319811690915581906001600160a01b03167f8be0079c531659141344cd1fd0a4f28419497f9722a3daafe3b4186f6b6457e08280a380f35b503461000e5761016036600319011261000e576001600160401b036004803582811161000e5761088590369083016105ef565b60243583811161000e5761089c90369084016105ef565b60443584811161000e576108b390369085016105ef565b60643585811161000e576108ca90369086016105ef565b60843586811161000e576108e190369087016105ef565b60a43587811161000e576108f890369088016105ef565b60c43588811161000e5761090f90369089016105ef565b9160e43589811161000e576109279036908a016105ef565b93610104358a811161000e576109409036908b016105ef565b95610124359a8b1161000e5761095f61096e9a6102e29c3691016105ef565b976109686103cb565b99611ab8565b6040519081529081906020820190565b503461000e57600036600319011261000e576006546040516001600160a01b039091168152602090f35b503461000e5760008060031936011261036a57604051908060018054916109ce8361126e565b8086529282811690811561034057506001146109f4576102e2856102d68187038261056d565b92508083527fb10e2d527612073b26eecdfd717e6a320cf44b4afac2b0732d9fcbe2b7fa0cf65b828410610a365750505081016020016102d6826102e26102c6565b80546020858701810191909152909301928101610a1b565b503461000e57604036600319011261000e57610a6861039e565b602435801515810361000e576001600160a01b03821691338314610af65781610ab3610ac49233600052600560205260406000209060018060a01b0316600052602052604060002090565b9060ff801983541691151516179055565b604051901515815233907f17307eab39ab6107e8899845ad3d59bd9653f200f220920489ca2b5937696c3190602090a3005b60405162461bcd60e51b815260206004820152601960248201527f4552433732313a20617070726f766520746f2063616c6c6572000000000000006044820152606490fd5b503461000e57608036600319011261000e57610b5561039e565b610b5d6103e2565b606435916001600160401b03831161000e573660238401121561000e57610b916104509336906024816004013591016105b8565b91604435916113eb565b503461000e5760208060031936011261000e57600435610bc5816000526008602052604060002090565b60409182518092858201610bd891611f50565b0391601f19928381018252610bed908261056d565b83519182868101610c18906013907221b7b7b632b9ba103833381034b7103a37bbb760691b81520190565b038481018452610c28908461056d565b610c30611fd3565b90610c3a81612209565b918651928391898301610c4c91612022565b610c5591612022565b038581018352610c65908361056d565b610c6e81612458565b90610c789061124b565b610c8a906001600160a01b031661288a565b908651948594898601610cad90600990683d913730b6b2911d1160b91b81520190565b610cb691612022565b71111610113232b9b1b934b83a34b7b7111d1160711b8152601201610cda91612022565b71222c202261747472696275746573223a205b60701b8152601201610cfe91612022565b6b2e96101137bbb732b9111d1160a11b8152600c01610d1c91612022565b6c1116101134b6b0b3b2911d101160991b8152600d01610d3b91612022565b61227d60f01b8152600201038281018252610d56908261056d565b610d5f90612120565b82517f646174613a6170706c69636174696f6e2f6a736f6e3b6261736536342c00000094810194855293849190601d01610d9891612022565b039081018352610da8908361056d565b516102e2819282610275565b6020908160408183019282815285518094520193019160005b828110610ddb575050505090565b835185529381019392810192600101610dcd565b503461000e5760208060031936011261000e57610e0a61039e565b610e1381611188565b91610e1d83611ee0565b92610e2b604051948561056d565b808452610e3a601f1991611ee0565b01368285013760075491600091906001600160a01b039081169060015b85811115610e6d57604051806102e28982610db4565b8282610e788361124b565b1614610e8d575b610e8890611f1d565b610e57565b93610eae610e88918851811015610eb6575b86868260051b8b010152611f1d565b949050610e7f565b610ebe611f39565b610e9f565b503461000e57604036600319011261000e57602060ff610f15610ee461039e565b610eec6103e2565b6001600160a01b0391821660009081526005865260408082209290931681526020919091522090565b54166040519015158152f35b503461000e576101a036600319011261000e576001600160401b0360243581811161000e57610f55600491369083016105ef565b60443583811161000e57610f6c90369084016105ef565b60643584811161000e57610f8390369085016105ef565b60843585811161000e57610f9a90369086016105ef565b60a43586811161000e57610fb190369087016105ef565b60c43587811161000e57610fc890369088016105ef565b60e43588811161000e57610fdf90369089016105ef565b916101043589811161000e57610ff89036908a016105ef565b93610124358a811161000e576110119036908b016105ef565b95610144358b811161000e5761102a9036908c016105ef565b97610164358c811161000e576110439036908d016105ef565b99610184359c8d1161000e5761105f8c6104509e3691016105ef565b9b35611d0d565b503461000e57602036600319011261000e5761108061039e565b611088611130565b6001600160a01b039081169081156110dc57600654826bffffffffffffffffffffffff60a01b821617600655167f8be0079c531659141344cd1fd0a4f28419497f9722a3daafe3b4186f6b6457e0600080a3005b60405162461bcd60e51b815260206004820152602660248201527f4f776e61626c653a206e6577206f776e657220697320746865207a65726f206160448201526564647265737360d01b6064820152608490fd5b6006546001600160a01b0316330361114457565b606460405162461bcd60e51b815260206004820152602060248201527f4f776e61626c653a2063616c6c6572206973206e6f7420746865206f776e65726044820152fd5b6001600160a01b031680156111a857600052600360205260406000205490565b60405162461bcd60e51b815260206004820152602960248201527f4552433732313a2061646472657373207a65726f206973206e6f7420612076616044820152683634b21037bbb732b960b91b6064820152608490fd5b1561120657565b60405162461bcd60e51b815260206004820152601860248201527f4552433732313a20696e76616c696420746f6b656e20494400000000000000006044820152606490fd5b6000908152600260205260409020546001600160a01b03166102868115156111ff565b90600182811c9216801561129e575b602083101461128857565b634e487b7160e01b600052602260045260246000fd5b91607f169161127d565b156112af57565b60405162461bcd60e51b815260206004820152603d60248201527f4552433732313a20617070726f76652063616c6c6572206973206e6f7420746f60448201527f6b656e206f776e6572206f7220617070726f76656420666f7220616c6c0000006064820152608490fd5b60008181526002602052604090205461133d906001600160a01b031615156111ff565b6000908152600460205260409020546001600160a01b031690565b1561135f57565b60405162461bcd60e51b815260206004820152602d60248201527f4552433732313a2063616c6c6572206973206e6f7420746f6b656e206f776e6560448201526c1c881bdc88185c1c1c9bdd9959609a1b6064820152608490fd5b60405190602082018281106001600160401b038211176113de575b60405260008252565b6113e661052e565b6113d5565b9061140f9392916113ff6105248433611486565b61140a838383611558565b61179b565b1561141657565b60405162461bcd60e51b81528061142f60048201611433565b0390fd5b60809060208152603260208201527f4552433732313a207472616e7366657220746f206e6f6e20455243373231526560408201527131b2b4bb32b91034b6b83632b6b2b73a32b960711b60608201520190565b6001600160a01b03806114988461124b565b1692818316928484149485156114ce575b505083156114b8575b50505090565b6114c49192935061131a565b16143880806114b2565b60009081526005602090815260408083206001600160a01b03949094168352929052205460ff16935038806114a9565b1561150557565b60405162461bcd60e51b815260206004820152602560248201527f4552433732313a207472616e736665722066726f6d20696e636f72726563742060448201526437bbb732b960d91b6064820152608490fd5b61157c906115658461124b565b6001600160a01b03828116939091821684146114fe565b8316928315611670576115ef611649926115ae856115a861159c8a61124b565b6001600160a01b031690565b146114fe565b6115d56115c5886000526004602052604060002090565b80546001600160a01b0319169055565b6001600160a01b0316600090815260036020526040902090565b80546000190190556001600160a01b03811660009081526003602052604090206001815401905561162a856000526002602052604060002090565b80546001600160a01b0319166001600160a01b03909216919091179055565b7fddf252ad1be2c89b69c2b068fc378daa952ba7f163c4a11628f55a4df523b3ef600080a4565b60405162461bcd60e51b8152602060048201526024808201527f4552433732313a207472616e7366657220746f20746865207a65726f206164646044820152637265737360e01b6064820152608490fd5b600082815260046020526040902080546001600160a01b0319166001600160a01b0383161790556001600160a01b03806116fa8461124b565b169116907f8c5be1e5ebec7d5bd14f71427d1e84f3dd0314c0f7b2291e5b200ac8c7c3b925600080a4565b9081602091031261000e5751610286816101ac565b6001600160a01b03918216815291166020820152604081019190915260806060820181905261028692910190610250565b3d15611796573d9061177c8261058e565b9161178a604051938461056d565b82523d6000602084013e565b606090565b92909190823b15611855576117ce926020926000604051809681958294630a85bd0160e11b9a8b8552336004860161173a565b03926001600160a01b03165af160009181611825575b50611817576117f161176b565b805190816118125760405162461bcd60e51b81528061142f60048201611433565b602001fd5b6001600160e01b0319161490565b61184791925060203d811161184e575b61183f818361056d565b810190611725565b90386117e4565b503d611835565b50505050600190565b9d9a98969492909c99979593916040519e8f9e8f916101e0808452830161188491610250565b828103602084015261189591610250565b9080820390604001526118a791610250565b8d810360608f01526118b891610250565b8c810360808e01526118c991610250565b8b810360a08d01526118da91610250565b8a810360c08c01526118eb91610250565b89810360e08b01526118fc91610250565b8881036101008a015261190e91610250565b87810361012089015261192091610250565b86810361014088015261193291610250565b85810361016087015261194491610250565b6101808501939093526101a08401526001600160a01b03166101c0830152037fec6f5abb6d06f755fe8458400db290a6d243e9739e9df87d230b155081d9a21391a1565b90601f811161199657505050565b600091825260208220906020601f850160051c830194106119d2575b601f0160051c01915b8281106119c757505050565b8181556001016119bb565b90925082906119b2565b91909182516001600160401b038111611aab575b611a04816119fe845461126e565b84611988565b602080601f8311600114611a40575081929394600092611a35575b50508160011b916000199060031b1c1916179055565b015190503880611a1f565b90601f19831695611a5685600052602060002090565b926000905b888210611a9357505083600195969710611a7a575b505050811b019055565b015160001960f88460031b161c19169055388080611a70565b80600185968294968601518155019501930190611a5b565b611ab361052e565b6119f0565b929693949897959190986001600754019a8b60075560018060a01b038116968715611c7d57611c05611c699a611bc88f6102869f611c2d98611be1611bf592611c559f611c419e86611bcd92611b8e611c199e611b39611b34611b3086600052600260205260018060a01b0360406000205416151590565b1590565b611cc1565b600084815260026020526040902054611b5b906001600160a01b031615611cc1565b6001600160a01b03811660009081526003602052604090206001815401905561162a846000526002602052604060002090565b60007fddf252ad1be2c89b69c2b068fc378daa952ba7f163c4a11628f55a4df523b3ef8180a4611bc8876000526008602052604060002090565b6119dc565b611bc8856000526009602052604060002090565b611bc883600052600a602052604060002090565b600052600b602052604060002090565b611bc88d600052600c602052604060002090565b611bc88b600052600d602052604060002090565b611bc889600052600e602052604060002090565b611bc887600052600f602052604060002090565b611bc8856000526010602052604060002090565b611bc8836000526011602052604060002090565b606460405162461bcd60e51b815260206004820152602060248201527f4552433732313a206d696e7420746f20746865207a65726f20616464726573736044820152fd5b15611cc857565b60405162461bcd60e51b815260206004820152601c60248201527f4552433732313a20746f6b656e20616c7265616479206d696e746564000000006044820152606490fd5b809c9b9a9998979695949392918051611ec2575b50508051611ea4575b508051611e86575b508051611e68575b508051611e4a575b508051611e2c575b508051611e0e575b508051611df0575b508051611dd2575b508051611db4575b508051611d96575b508051611d7d575050565b611bc8611d94926000526013602052604060002090565b565b611dae90611bc8846000526012602052604060002090565b38611d72565b611dcc90611bc8856000526011602052604060002090565b38611d6a565b611dea90611bc8866000526010602052604060002090565b38611d62565b611e0890611bc887600052600f602052604060002090565b38611d5a565b611e2690611bc888600052600e602052604060002090565b38611d52565b611e4490611bc889600052600d602052604060002090565b38611d4a565b611e6290611bc88a600052600c602052604060002090565b38611d42565b611e8090611bc88b600052600b602052604060002090565b38611d3a565b611e9e90611bc88c600052600a602052604060002090565b38611d32565b611ebc90611bc88d6000526009602052604060002090565b38611d2a565b611bc8611ed9926000526008602052604060002090565b8b38611d21565b6020906001600160401b038111611ef9575b60051b0190565b611f0161052e565b611ef2565b50634e487b7160e01b600052601160045260246000fd5b6001906000198114611f2d570190565b611f35611f06565b0190565b50634e487b7160e01b600052603260045260246000fd5b600092918154611f5f8161126e565b92600191808316908115611fb85750600114611f7c575b50505050565b90919293945060005260209081600020906000915b858310611fa75750505050019038808080611f76565b805485840152918301918101611f91565b60ff1916845250505081151590910201915038808080611f76565b60405190604082018281106001600160401b03821117612015575b604052601582527468747470733a2f2f6176617461616172732e696f2f60581b6020830152565b61201d61052e565b611fee565b90611f356020928281519485920161022d565b60405190606082018281106001600160401b038211176120a5575b604052604082527f6768696a6b6c6d6e6f707172737475767778797a303132333435363738392b2f6040837f4142434445464748494a4b4c4d4e4f505152535455565758595a61626364656660208201520152565b6120ad61052e565b612050565b90600282018092116120c057565b611d94611f06565b90602082018092116120c057565b600281901b91906001600160fe1b038116036120c057565b906120f88261058e565b612105604051918261056d565b8281528092612116601f199161058e565b0190602036910137565b8051156122005761212f612035565b61214b61214661213f84516120b2565b6003900490565b6120d6565b9161215d612158846120c8565b6120ee565b92835280815182019060208501935b8282106121ae5750505060039051068060011461219d5760021461218e575090565b603d60f81b6000199091015290565b50613d3d60f01b6001199091015290565b9091936004906003809401938451600190603f9082828260121c16880101518553828282600c1c16880101518386015382828260061c168801015160028601531685010151908201530193919061216c565b506102866113ba565b61221d816000526009602052604060002090565b61223182600052600a602052604060002090565b9161224681600052600b602052604060002090565b9061225b81600052600c602052604060002090565b61226f82600052600d602052604060002090565b61228383600052600e602052604060002090565b61229784600052600f602052604060002090565b906122ac856000526010602052604060002090565b926122c1866000526011602052604060002090565b946122d6876000526012602052604060002090565b966122eb906000526013602052604060002090565b976040519a8b9a60208c016c3f6176617461725374796c653d60981b9052602d8c0161231691611f50565b6826746f70547970653d60b81b815260090161233191611f50565b6a2668616972436f6c6f723d60a81b8152600b0161234e91611f50565b6c2665796562726f77547970653d60981b8152600d0161236d91611f50565b6826657965547970653d60b81b815260090161238891611f50565b70266163636573736f72696573547970653d60781b81526011016123ab91611f50565b6a266d6f757468547970653d60a81b8152600b016123c891611f50565b6f2666616369616c48616972547970653d60801b81526010016123ea91611f50565b6b26636c6f746865547970653d60a01b8152600c0161240891611f50565b6c26636c6f746865436f6c6f723d60981b8152600d0161242791611f50565b6c2667726170686963547970653d60981b8152600d0161244691611f50565b03601f1981018252610286908261056d565b61246c816000526009602052604060002090565b61248082600052600a602052604060002090565b9161249581600052600b602052604060002090565b906124aa81600052600c602052604060002090565b6124be82600052600d602052604060002090565b6124d283600052600e602052604060002090565b6124e684600052600f602052604060002090565b906124fb856000526010602052604060002090565b92612510866000526011602052604060002090565b94612525876000526012602052604060002090565b9661253a906000526013602052604060002090565b976040519a8b9a60208c017f7b202274726169745f74797065223a20226176617461725374796c65222c20229052683b30b63ab291101d1160b91b60408d015260498c0161258791611f50565b7f227d2c207b2274726169745f74797065223a2022746f7054797065222c20227681526730b63ab291101d1160c11b60208201526028016125c791611f50565b7f227d2c7b2274726169745f74797065223a202268616972436f6c6f72222c20228152683b30b63ab291101d1160b91b602082015260290161260891611f50565b7f227d2c207b2274726169745f74797065223a202265796562726f77547970652281526b1610113b30b63ab291101d1160a11b6020820152602c0161264c91611f50565b7f227d2c207b2274726169745f74797065223a202265796554797065222c20227681526730b63ab291101d1160c11b602082015260280161268c91611f50565b7f227d2c207b2274726169745f74797065223a20226163636573736f726965735481526f3cb832911610113b30b63ab291101d1160811b60208201526030016126d491611f50565b7f227d2c7b2274726169745f74797065223a20226d6f75746854797065222c20228152683b30b63ab291101d1160b91b602082015260290161271591611f50565b7f227d2c207b2274726169745f74797065223a202266616369616c48616972547981526e3832911610113b30b63ab291101d1160891b6020820152602f0161275c91611f50565b7f227d2c207b2274726169745f74797065223a2022636c6f74686554797065222c81526a10113b30b63ab291101d1160a91b6020820152602b0161279f91611f50565b7f227d2c207b2274726169745f74797065223a2022636c6f746865436f6c6f722281526b1610113b30b63ab291101d1160a11b6020820152602c016127e391611f50565b7f227d2c7b2274726169745f74797065223a20226772617068696354797065222c81526a10113b30b63ab291101d1160a91b6020820152602b0161282691611f50565b620113e960ed1b8152600301612446565b602190805160011015612848570190565b611f35611f39565b90602091805182101561286257010190565b61286a611f39565b010190565b801561287d575b6000190190565b612885611f06565b612876565b6040519061289782610545565b602a8252603060208301604036823783511561291b575b5360786128ba83612837565b536029905b600182116128cc57505090565b80600f6129089216601081101561290e575b6f181899199a1a9b1b9c1cb0b131b232b360811b901a6128fe8486612850565b5360041c9161286f565b906128bf565b612916611f39565b6128de565b612923611f39565b6128ae56fea26469706673582212209dee0d7b1d9627414b9638572e70b41661b952a3551bae7290386e848da4814f64736f6c63430008110033",
  "devdoc": {
    "kind": "dev",
    "methods": {
      "approve(address,uint256)": {
        "details": "See {IERC721-approve}."
      },
      "balanceOf(address)": {
        "details": "See {IERC721-balanceOf}."
      },
      "getApproved(uint256)": {
        "details": "See {IERC721-getApproved}."
      },
      "isApprovedForAll(address,address)": {
        "details": "See {IERC721-isApprovedForAll}."
      },
      "name()": {
        "details": "See {IERC721Metadata-name}."
      },
      "owner()": {
        "details": "Returns the address of the current owner."
      },
      "ownerOf(uint256)": {
        "details": "See {IERC721-ownerOf}."
      },
      "renounceOwnership()": {
        "details": "Leaves the contract without owner. It will not be possible to call `onlyOwner` functions anymore. Can only be called by the current owner. NOTE: Renouncing ownership will leave the contract without an owner, thereby removing any functionality that is only available to the owner."
      },
      "safeTransferFrom(address,address,uint256)": {
        "details": "See {IERC721-safeTransferFrom}."
      },
      "safeTransferFrom(address,address,uint256,bytes)": {
        "details": "See {IERC721-safeTransferFrom}."
      },
      "setApprovalForAll(address,bool)": {
        "details": "See {IERC721-setApprovalForAll}."
      },
      "supportsInterface(bytes4)": {
        "details": "See {IERC165-supportsInterface}."
      },
      "symbol()": {
        "details": "See {IERC721Metadata-symbol}."
      },
      "transferFrom(address,address,uint256)": {
        "details": "See {IERC721-transferFrom}."
      },
      "transferOwnership(address)": {
        "details": "Transfers ownership of the contract to a new account (`newOwner`). Can only be called by the current owner."
      }
    },
    "version": 1
  },
  "userdoc": {
    "kind": "user",
    "methods": {},
    "version": 1
  },
  "storageLayout": {
    "storage": [
      {
        "astId": 138,
        "contract": "contracts/Minter.sol:Nimbus",
        "label": "_name",
        "offset": 0,
        "slot": "0",
        "type": "t_string_storage"
      },
      {
        "astId": 140,
        "contract": "contracts/Minter.sol:Nimbus",
        "label": "_symbol",
        "offset": 0,
        "slot": "1",
        "type": "t_string_storage"
      },
      {
        "astId": 144,
        "contract": "contracts/Minter.sol:Nimbus",
        "label": "_owners",
        "offset": 0,
        "slot": "2",
        "type": "t_mapping(t_uint256,t_address)"
      },
      {
        "astId": 148,
        "contract": "contracts/Minter.sol:Nimbus",
        "label": "_balances",
        "offset": 0,
        "slot": "3",
        "type": "t_mapping(t_address,t_uint256)"
      },
      {
        "astId": 152,
        "contract": "contracts/Minter.sol:Nimbus",
        "label": "_tokenApprovals",
        "offset": 0,
        "slot": "4",
        "type": "t_mapping(t_uint256,t_address)"
      },
      {
        "astId": 158,
        "contract": "contracts/Minter.sol:Nimbus",
        "label": "_operatorApprovals",
        "offset": 0,
        "slot": "5",
        "type": "t_mapping(t_address,t_mapping(t_address,t_bool))"
      },
      {
        "astId": 7,
        "contract": "contracts/Minter.sol:Nimbus",
        "label": "_owner",
        "offset": 0,
        "slot": "6",
        "type": "t_address"
      },
      {
        "astId": 2842,
        "contract": "contracts/Minter.sol:Nimbus",
        "label": "_tokenIds",
        "offset": 0,
        "slot": "7",
        "type": "t_struct(Counter)1558_storage"
      },
      {
        "astId": 2877,
        "contract": "contracts/Minter.sol:Nimbus",
        "label": "_nftName",
        "offset": 0,
        "slot": "8",
        "type": "t_mapping(t_uint256,t_string_storage)"
      },
      {
        "astId": 2881,
        "contract": "contracts/Minter.sol:Nimbus",
        "label": "_avatarStyle",
        "offset": 0,
        "slot": "9",
        "type": "t_mapping(t_uint256,t_string_storage)"
      },
      {
        "astId": 2885,
        "contract": "contracts/Minter.sol:Nimbus",
        "label": "_topType",
        "offset": 0,
        "slot": "10",
        "type": "t_mapping(t_uint256,t_string_storage)"
      },
      {
        "astId": 2889,
        "contract": "contracts/Minter.sol:Nimbus",
        "label": "_hairColor",
        "offset": 0,
        "slot": "11",
        "type": "t_mapping(t_uint256,t_string_storage)"
      },
      {
        "astId": 2893,
        "contract": "contracts/Minter.sol:Nimbus",
        "label": "_eyebrowType",
        "offset": 0,
        "slot": "12",
        "type": "t_mapping(t_uint256,t_string_storage)"
      },
      {
        "astId": 2897,
        "contract": "contracts/Minter.sol:Nimbus",
        "label": "_eyeType",
        "offset": 0,
        "slot": "13",
        "type": "t_mapping(t_uint256,t_string_storage)"
      },
      {
        "astId": 2901,
        "contract": "contracts/Minter.sol:Nimbus",
        "label": "_accessoriesType",
        "offset": 0,
        "slot": "14",
        "type": "t_mapping(t_uint256,t_string_storage)"
      },
      {
        "astId": 2905,
        "contract": "contracts/Minter.sol:Nimbus",
        "label": "_mouthType",
        "offset": 0,
        "slot": "15",
        "type": "t_mapping(t_uint256,t_string_storage)"
      },
      {
        "astId": 2909,
        "contract": "contracts/Minter.sol:Nimbus",
        "label": "_facialHairType",
        "offset": 0,
        "slot": "16",
        "type": "t_mapping(t_uint256,t_string_storage)"
      },
      {
        "astId": 2913,
        "contract": "contracts/Minter.sol:Nimbus",
        "label": "_clotheType",
        "offset": 0,
        "slot": "17",
        "type": "t_mapping(t_uint256,t_string_storage)"
      },
      {
        "astId": 2917,
        "contract": "contracts/Minter.sol:Nimbus",
        "label": "_clotheColor",
        "offset": 0,
        "slot": "18",
        "type": "t_mapping(t_uint256,t_string_storage)"
      },
      {
        "astId": 2921,
        "contract": "contracts/Minter.sol:Nimbus",
        "label": "_graphicType",
        "offset": 0,
        "slot": "19",
        "type": "t_mapping(t_uint256,t_string_storage)"
      }
    ],
    "types": {
      "t_address": {
        "encoding": "inplace",
        "label": "address",
        "numberOfBytes": "20"
      },
      "t_bool": {
        "encoding": "inplace",
        "label": "bool",
        "numberOfBytes": "1"
      },
      "t_mapping(t_address,t_bool)": {
        "encoding": "mapping",
        "key": "t_address",
        "label": "mapping(address => bool)",
        "numberOfBytes": "32",
        "value": "t_bool"
      },
      "t_mapping(t_address,t_mapping(t_address,t_bool))": {
        "encoding": "mapping",
        "key": "t_address",
        "label": "mapping(address => mapping(address => bool))",
        "numberOfBytes": "32",
        "value": "t_mapping(t_address,t_bool)"
      },
      "t_mapping(t_address,t_uint256)": {
        "encoding": "mapping",
        "key": "t_address",
        "label": "mapping(address => uint256)",
        "numberOfBytes": "32",
        "value": "t_uint256"
      },
      "t_mapping(t_uint256,t_address)": {
        "encoding": "mapping",
        "key": "t_uint256",
        "label": "mapping(uint256 => address)",
        "numberOfBytes": "32",
        "value": "t_address"
      },
      "t_mapping(t_uint256,t_string_storage)": {
        "encoding": "mapping",
        "key": "t_uint256",
        "label": "mapping(uint256 => string)",
        "numberOfBytes": "32",
        "value": "t_string_storage"
      },
      "t_string_storage": {
        "encoding": "bytes",
        "label": "string",
        "numberOfBytes": "32"
      },
      "t_struct(Counter)1558_storage": {
        "encoding": "inplace",
        "label": "struct Counters.Counter",
        "members": [
          {
            "astId": 1557,
            "contract": "contracts/Minter.sol:Nimbus",
            "label": "_value",
            "offset": 0,
            "slot": "0",
            "type": "t_uint256"
          }
        ],
        "numberOfBytes": "32"
      },
      "t_uint256": {
        "encoding": "inplace",
        "label": "uint256",
        "numberOfBytes": "32"
      }
    }
  }
}