{"contracts/Minter.sol":{"Nimbus":{"abi":[{"inputs":[{"internalType":"address","name":"_owner","type":"address"}],"stateMutability":"nonpayable","type":"constructor"},{"anonymous":false,"inputs":[{"indexed":true,"internalType":"address","name":"owner","type":"address"},{"indexed":true,"internalType":"address","name":"approved","type":"address"},{"indexed":true,"internalType":"uint256","name":"tokenId","type":"uint256"}],"name":"Approval","type":"event"},{"anonymous":false,"inputs":[{"indexed":true,"internalType":"address","name":"owner","type":"address"},{"indexed":true,"internalType":"address","name":"operator","type":"address"},{"indexed":false,"internalType":"bool","name":"approved","type":"bool"}],"name":"ApprovalForAll","type":"event"},{"anonymous":false,"inputs":[{"indexed":false,"internalType":"string","name":"name","type":"string"},{"indexed":false,"internalType":"string","name":"avatarStyle","type":"string"},{"indexed":false,"internalType":"string","name":"topType","type":"string"},{"indexed":false,"internalType":"string","name":"hairColor","type":"string"},{"indexed":false,"internalType":"string","name":"eyebrowType","type":"string"},{"indexed":false,"internalType":"string","name":"eyeType","type":"string"},{"indexed":false,"internalType":"string","name":"accessoriesType","type":"string"},{"indexed":false,"internalType":"string","name":"mouthType","type":"string"},{"indexed":false,"internalType":"string","name":"facialHairType","type":"string"},{"indexed":false,"internalType":"string","name":"clotheType","type":"string"},{"indexed":false,"internalType":"string","name":"clotheColor","type":"string"},{"indexed":false,"internalType":"string","name":"graphicType","type":"string"},{"indexed":false,"internalType":"uint256","name":"destinationChain","type":"uint256"},{"indexed":false,"internalType":"uint256","name":"srcChain","type":"uint256"},{"indexed":false,"internalType":"address","name":"mintFor","type":"address"}],"name":"CreateMintRequest","type":"event"},{"anonymous":false,"inputs":[{"indexed":true,"internalType":"address","name":"previousOwner","type":"address"},{"indexed":true,"internalType":"address","name":"newOwner","type":"address"}],"name":"OwnershipTransferred","type":"event"},{"anonymous":false,"inputs":[{"indexed":true,"internalType":"address","name":"from","type":"address"},{"indexed":true,"internalType":"address","name":"to","type":"address"},{"indexed":true,"internalType":"uint256","name":"tokenId","type":"uint256"}],"name":"Transfer","type":"event"},{"inputs":[{"internalType":"address","name":"to","type":"address"},{"internalType":"uint256","name":"tokenId","type":"uint256"}],"name":"approve","outputs":[],"stateMutability":"nonpayable","type":"function"},{"inputs":[{"internalType":"address","name":"owner","type":"address"}],"name":"balanceOf","outputs":[{"internalType":"uint256","name":"","type":"uint256"}],"stateMutability":"view","type":"function"},{"inputs":[{"internalType":"string","name":"name","type":"string"},{"internalType":"string","name":"avatarStyle","type":"string"},{"internalType":"string","name":"topType","type":"string"},{"internalType":"string","name":"hairColor","type":"string"},{"internalType":"string","name":"eyebrowType","type":"string"},{"internalType":"string","name":"eyeType","type":"string"},{"internalType":"string","name":"accessoriesType","type":"string"},{"internalType":"string","name":"mouthType","type":"string"},{"internalType":"string","name":"facialHairType","type":"string"},{"internalType":"string","name":"clotheType","type":"string"},{"internalType":"string","name":"clotheColor","type":"string"},{"internalType":"string","name":"graphicType","type":"string"},{"internalType":"uint256","name":"destinationChain","type":"uint256"},{"internalType":"uint256","name":"srcChain","type":"uint256"},{"internalType":"address","name":"mintFor","type":"address"}],"name":"createMintRequest","outputs":[],"stateMutability":"nonpayable","type":"function"},{"inputs":[{"internalType":"uint256","name":"_id","type":"uint256"},{"internalType":"string","name":"name","type":"string"},{"internalType":"string","name":"avatarStyle","type":"string"},{"internalType":"string","name":"topType","type":"string"},{"internalType":"string","name":"hairColor","type":"string"},{"internalType":"string","name":"eyebrowType","type":"string"},{"internalType":"string","name":"eyeType","type":"string"},{"internalType":"string","name":"accessoriesType","type":"string"},{"internalType":"string","name":"mouthType","type":"string"},{"internalType":"string","name":"facialHairType","type":"string"},{"internalType":"string","name":"clotheType","type":"string"},{"internalType":"string","name":"clotheColor","type":"string"},{"internalType":"string","name":"graphicType","type":"string"}],"name":"editAvatar","outputs":[],"stateMutability":"nonpayable","type":"function"},{"inputs":[{"internalType":"uint256","name":"tokenId","type":"uint256"}],"name":"getApproved","outputs":[{"internalType":"address","name":"","type":"address"}],"stateMutability":"view","type":"function"},{"inputs":[{"internalType":"address","name":"owner","type":"address"},{"internalType":"address","name":"operator","type":"address"}],"name":"isApprovedForAll","outputs":[{"internalType":"bool","name":"","type":"bool"}],"stateMutability":"view","type":"function"},{"inputs":[{"internalType":"string","name":"name","type":"string"},{"internalType":"string","name":"avatarStyle","type":"string"},{"internalType":"string","name":"topType","type":"string"},{"internalType":"string","name":"hairColor","type":"string"},{"internalType":"string","name":"eyebrowType","type":"string"},{"internalType":"string","name":"eyeType","type":"string"},{"internalType":"string","name":"accessoriesType","type":"string"},{"internalType":"string","name":"mouthType","type":"string"},{"internalType":"string","name":"facialHairType","type":"string"},{"internalType":"string","name":"clotheType","type":"string"},{"internalType":"address","name":"_mintFor","type":"address"}],"name":"mintItem","outputs":[{"internalType":"uint256","name":"","type":"uint256"}],"stateMutability":"nonpayable","type":"function"},{"inputs":[{"internalType":"address","name":"_addr","type":"address"}],"name":"myAvatars","outputs":[{"internalType":"uint256[]","name":"","type":"uint256[]"}],"stateMutability":"view","type":"function"},{"inputs":[],"name":"name","outputs":[{"internalType":"string","name":"","type":"string"}],"stateMutability":"view","type":"function"},{"inputs":[],"name":"owner","outputs":[{"internalType":"address","name":"","type":"address"}],"stateMutability":"view","type":"function"},{"inputs":[{"internalType":"uint256","name":"tokenId","type":"uint256"}],"name":"ownerOf","outputs":[{"internalType":"address","name":"","type":"address"}],"stateMutability":"view","type":"function"},{"inputs":[],"name":"renounceOwnership","outputs":[],"stateMutability":"nonpayable","type":"function"},{"inputs":[{"internalType":"address","name":"from","type":"address"},{"internalType":"address","name":"to","type":"address"},{"internalType":"uint256","name":"tokenId","type":"uint256"}],"name":"safeTransferFrom","outputs":[],"stateMutability":"nonpayable","type":"function"},{"inputs":[{"internalType":"address","name":"from","type":"address"},{"internalType":"address","name":"to","type":"address"},{"internalType":"uint256","name":"tokenId","type":"uint256"},{"internalType":"bytes","name":"data","type":"bytes"}],"name":"safeTransferFrom","outputs":[],"stateMutability":"nonpayable","type":"function"},{"inputs":[{"internalType":"address","name":"operator","type":"address"},{"internalType":"bool","name":"approved","type":"bool"}],"name":"setApprovalForAll","outputs":[],"stateMutability":"nonpayable","type":"function"},{"inputs":[{"internalType":"bytes4","name":"interfaceId","type":"bytes4"}],"name":"supportsInterface","outputs":[{"internalType":"bool","name":"","type":"bool"}],"stateMutability":"view","type":"function"},{"inputs":[],"name":"symbol","outputs":[{"internalType":"string","name":"","type":"string"}],"stateMutability":"view","type":"function"},{"inputs":[{"internalType":"uint256","name":"id","type":"uint256"}],"name":"tokenURI","outputs":[{"internalType":"string","name":"","type":"string"}],"stateMutability":"view","type":"function"},{"inputs":[{"internalType":"address","name":"from","type":"address"},{"internalType":"address","name":"to","type":"address"},{"internalType":"uint256","name":"tokenId","type":"uint256"}],"name":"transferFrom","outputs":[],"stateMutability":"nonpayable","type":"function"},{"inputs":[{"internalType":"address","name":"newOwner","type":"address"}],"name":"transferOwnership","outputs":[],"stateMutability":"nonpayable","type":"function"}],"devdoc":{"kind":"dev","methods":{"approve(address,uint256)":{"details":"See {IERC721-approve}."},"balanceOf(address)":{"details":"See {IERC721-balanceOf}."},"getApproved(uint256)":{"details":"See {IERC721-getApproved}."},"isApprovedForAll(address,address)":{"details":"See {IERC721-isApprovedForAll}."},"name()":{"details":"See {IERC721Metadata-name}."},"owner()":{"details":"Returns the address of the current owner."},"ownerOf(uint256)":{"details":"See {IERC721-ownerOf}."},"renounceOwnership()":{"details":"Leaves the contract without owner. It will not be possible to call `onlyOwner` functions anymore. Can only be called by the current owner. NOTE: Renouncing ownership will leave the contract without an owner, thereby removing any functionality that is only available to the owner."},"safeTransferFrom(address,address,uint256)":{"details":"See {IERC721-safeTransferFrom}."},"safeTransferFrom(address,address,uint256,bytes)":{"details":"See {IERC721-safeTransferFrom}."},"setApprovalForAll(address,bool)":{"details":"See {IERC721-setApprovalForAll}."},"supportsInterface(bytes4)":{"details":"See {IERC165-supportsInterface}."},"symbol()":{"details":"See {IERC721Metadata-symbol}."},"transferFrom(address,address,uint256)":{"details":"See {IERC721-transferFrom}."},"transferOwnership(address)":{"details":"Transfers ownership of the contract to a new account (`newOwner`). Can only be called by the current owner."}},"version":1},"evm":{"bytecode":{"linkReferences":{},"object":"6080346200037b576001600160401b03601f19601f62002b2d38819003828101841686018581118782101762000365578692829160405283396020958691810103126200037b57516001600160a01b039390848116036200037b576200006462000380565b9160068352654e494d42555360d01b868401526200008162000380565b9560038752624e494d60e81b8188015283519483861162000365576000958654956001968781811c911680156200035a575b858210146200034657908186849311620002f3575b5084908683116001146200029257899262000286575b5050600019600383901b1c191690861b1786555b8751938411620002725784548581811c9116801562000267575b8382101462000253578381116200020b575b5081928411600114620001a55750508394958293949262000199575b5050600019600383901b1c191690821b1790555b600654903360018060a01b03198316176006557f8be0079c531659141344cd1fd0a4f28419497f9722a3daafe3b4186f6b6457e0604051933393169180a361278c9081620003a18239f35b0151905038806200013a565b8392919216968486528286209286905b898210620001f3575050838596979810620001d9575b505050811b0190556200014e565b015160001960f88460031b161c19169055388080620001cb565b808785968294968601518155019501930190620001b5565b8587528287208480870160051c82019285881062000249575b0160051c019086905b8281106200023d5750506200011e565b8881550186906200022d565b9250819262000224565b634e487b7160e01b87526022600452602487fd5b90607f16906200010c565b634e487b7160e01b86526041600452602486fd5b015190503880620000de565b9084899416918a8052868b20928b5b88828210620002dc5750508411620002c2575b505050811b018655620000f2565b015160001960f88460031b161c19169055388080620002b4565b8385015186558c97909501949384019301620002a1565b9091508880528489208680850160051c8201928786106200033c575b918a91869594930160051c01915b8281106200032d575050620000c8565b8b81558594508a91016200031d565b925081926200030f565b634e487b7160e01b89526022600452602489fd5b90607f1690620000b3565b634e487b7160e01b600052604160045260246000fd5b600080fd5b60408051919082016001600160401b03811183821017620003655760405256fe60806040526004361015610013575b600080fd5b60003560e01c806301ffc9a7146101a357806306fdde031461019a578063081812fc14610191578063095ea7b31461018857806323b872dd1461017f5780633d0087cc1461017657806342842e0e1461016d5780636352211e1461016457806370a082311461015b578063715018a614610152578063768c8a0a146101495780638da5cb5b1461014057806395d89b4114610137578063a22cb4651461012e578063b88d4fde14610125578063c87b56dd1461011c578063d94719dc14610113578063e985e9c51461010a578063f20fd529146101015763f2fde38b146100f957600080fd5b61000e610fef565b5061000e610eaa565b5061000e610e58565b5061000e610d84565b5061000e610b3b565b5061000e610adb565b5061000e610a04565b5061000e61097e565b5061000e610954565b5061000e610828565b5061000e6107db565b5061000e6107af565b5061000e610790565b5061000e610747565b5061000e6105f0565b5061000e6104e8565b5061000e6103d6565b5061000e61034b565b5061000e610289565b5061000e6101be565b6001600160e01b031981160361000e57565b503461000e57602036600319011261000e5760206004356101de816101ac565b63ffffffff60e01b166380ac58cd60e01b811490811561021c575b811561020b575b506040519015158152f35b6301ffc9a760e01b14905038610200565b635b5e139f60e01b811491506101f9565b60005b8381106102405750506000910152565b8181015183820152602001610230565b906020916102698151809281855285808601910161022d565b601f01601f1916010190565b906020610286928181520190610250565b90565b503461000e57600080600319360112610348576040518180546102ab8161122a565b8084529060019081811690811561032057506001146102e5575b6102e1846102d581880382610551565b60405191829182610275565b0390f35b93508180526020938483205b82841061030d57505050816102e1936102d592820101936102c5565b80548585018701529285019281016102f1565b6102e196506102d59450602092508593915060ff191682840152151560051b820101936102c5565b80fd5b503461000e57602036600319011261000e57602061036a600435611396565b6040516001600160a01b039091168152f35b600435906001600160a01b038216820361000e57565b6101c435906001600160a01b038216820361000e57565b61014435906001600160a01b038216820361000e57565b602435906001600160a01b038216820361000e57565b503461000e57604036600319011261000e576103f061037c565b6024356103fc81611207565b916001600160a01b0380841690821681146104645761042e93610429913314908115610430575b50611264565b6116d1565b005b6001600160a01b0316600090815260056020526040902061045e9150610457903390611132565b5460ff1690565b38610423565b60405162461bcd60e51b815260206004820152602160248201527f4552433732313a20617070726f76616c20746f2063757272656e74206f776e656044820152603960f91b6064820152608490fd5b606090600319011261000e576001600160a01b0390600435828116810361000e5791602435908116810361000e579060443590565b503461000e5761042e6104fa366104b3565b9161050d61050884336114f0565b6113c2565b6115b8565b50634e487b7160e01b600052604160045260246000fd5b606081019081106001600160401b0382111761054457604052565b61054c610512565b604052565b601f909101601f19168101906001600160401b0382119082101761054457604052565b6020906001600160401b038111610591575b601f01601f19160190565b610599610512565b610586565b9291926105aa82610574565b916105b86040519384610551565b82948184528183011161000e578281602093846000960137010152565b9080601f8301121561000e578160206102869335910161059e565b503461000e576101e036600319011261000e5760046001600160401b03813581811161000e5761062390369084016105d5565b60243582811161000e5761063a90369085016105d5565b9060443583811161000e5761065290369086016105d5565b9260643581811161000e5761066a90369087016105d5565b9060843581811161000e5761068290369088016105d5565b60a43582811161000e5761069990369089016105d5565b60c43583811161000e576106b09036908a016105d5565b60e43584811161000e576106c79036908b016105d5565b906101043585811161000e576106e09036908c016105d5565b926101243586811161000e576106f99036908d016105d5565b946101443587811161000e578c610712913691016105d5565b966101643590811161000e5761042e9c61072e913691016105d5565b97610737610392565b9b6101a4359b610184359b61187b565b503461000e5761042e610759366104b3565b60405192909190602084016001600160401b03811185821017610783575b60405260008452611455565b61078b610512565b610777565b503461000e57602036600319011261000e57602061036a600435611207565b503461000e57602036600319011261000e5760206107d36107ce61037c565b611149565b604051908152f35b503461000e57600080600319360112610348576107f66110a1565b600680546001600160a01b0319811690915581906001600160a01b03166000805160206127178339815191528280a380f35b503461000e5761016036600319011261000e576001600160401b036004803582811161000e5761085b90369083016105d5565b60243583811161000e5761087290369084016105d5565b60443584811161000e5761088990369085016105d5565b60643585811161000e576108a090369086016105d5565b60843586811161000e576108b790369087016105d5565b60a43587811161000e576108ce90369088016105d5565b60c43588811161000e576108e590369089016105d5565b9160e43589811161000e576108fd9036908a016105d5565b93610104358a811161000e576109169036908b016105d5565b95610124359a8b1161000e576109356109449a6102e19c3691016105d5565b9761093e6103a9565b99611ad5565b6040519081529081906020820190565b503461000e57600036600319011261000e576006546040516001600160a01b039091168152602090f35b503461000e57600080600319360112610348576040518160018054906109a38261122a565b8085529181811690811561032057506001146109c9576102e1846102d581880382610551565b80945082526020938483205b8284106109f157505050816102e1936102d592820101936102c5565b80548585018701529285019281016109d5565b503461000e57604036600319011261000e57610a1e61037c565b602435801515810361000e576001600160a01b03821691338314610a9a5781610a57610a68923360005260056020526040600020611132565b9060ff801983541691151516179055565b604051901515815233907f17307eab39ab6107e8899845ad3d59bd9653f200f220920489ca2b5937696c3190602090a3005b60405162461bcd60e51b815260206004820152601960248201527822a9219b99189d1030b8383937bb32903a379031b0b63632b960391b6044820152606490fd5b503461000e57608036600319011261000e57610af561037c565b610afd6103c0565b606435916001600160401b03831161000e573660238401121561000e57610b3161042e93369060248160040135910161059e565b9160443591611455565b503461000e5760208060031936011261000e57600435610b5a816112d6565b60409182518092858201610b6d91611e30565b0391601f19928381018252610b829082610551565b83519182868101610bad906013907221b7b7b632b9ba103833381034b7103a37bbb760691b81520190565b038481018452610bbd9084610551565b610bc5611eb3565b90610bcf816120e9565b918651928391898301610be191611f02565b610bea91611f02565b038581018352610bfa9083610551565b610c03816122bf565b90610c0d90611207565b610c1f906001600160a01b0316612678565b908651948594898601610c4290600990683d913730b6b2911d1160b91b81520190565b610c4b91611f02565b71111610113232b9b1b934b83a34b7b7111d1160711b8152601201610c6f91611f02565b71222c202261747472696275746573223a205b60701b8152601201610c9391611f02565b6b2e96101137bbb732b9111d1160a11b8152600c01610cb191611f02565b6c1116101134b6b0b3b2911d101160991b8152600d01610cd091611f02565b61227d60f01b8152600201038281018252610ceb9082610551565b610cf490612000565b82517f646174613a6170706c69636174696f6e2f6a736f6e3b6261736536342c00000094810194855293849190601d01610d2d91611f02565b039081018352610d3d9083610551565b516102e1819282610275565b6020908160408183019282815285518094520193019160005b828110610d70575050505090565b835185529381019392810192600101610d62565b503461000e5760208060031936011261000e57610d9f61037c565b610da881611149565b91610db283611dc0565b92610dc06040519485610551565b808452610dcf601f1991611dc0565b01368285013760075491600091906001600160a01b039081169060015b85811115610e0257604051806102e18982610d49565b8282610e0d83611207565b1614610e22575b610e1d90611dfd565b610dec565b93610e43610e1d918851811015610e4b575b86868260051b8b010152611dfd565b949050610e14565b610e53611e19565b610e34565b503461000e57604036600319011261000e57602060ff610e9e610e7961037c565b610e816103c0565b6001600160a01b0390911660009081526005855260409020611132565b54166040519015158152f35b503461000e576101a036600319011261000e576001600160401b0360243581811161000e57610ede600491369083016105d5565b60443583811161000e57610ef590369084016105d5565b60643584811161000e57610f0c90369085016105d5565b60843585811161000e57610f2390369086016105d5565b60a43586811161000e57610f3a90369087016105d5565b60c43587811161000e57610f5190369088016105d5565b60e43588811161000e57610f6890369089016105d5565b916101043589811161000e57610f819036908a016105d5565b93610124358a811161000e57610f9a9036908b016105d5565b95610144358b811161000e57610fb39036908c016105d5565b97610164358c811161000e57610fcc9036908d016105d5565b99610184359c8d1161000e57610fe88c61042e9e3691016105d5565b9b35611c71565b503461000e57602036600319011261000e5761100961037c565b6110116110a1565b6001600160a01b0390811690811561104d57600680546001600160a01b03198116841790915516600080516020612717833981519152600080a3005b60405162461bcd60e51b815260206004820152602660248201527f4f776e61626c653a206e6577206f776e657220697320746865207a65726f206160448201526564647265737360d01b6064820152608490fd5b6006546001600160a01b031633036110b557565b606460405162461bcd60e51b815260206004820152602060248201527f4f776e61626c653a2063616c6c6572206973206e6f7420746865206f776e65726044820152fd5b80546001600160a01b0319166001600160a01b03909216919091179055565b6001600160a01b0316600090815260036020526040902090565b9060018060a01b0316600052602052604060002090565b6001600160a01b0316801561116957600052600360205260406000205490565b60405162461bcd60e51b815260206004820152602960248201527f4552433732313a2061646472657373207a65726f206973206e6f7420612076616044820152683634b21037bbb732b960b91b6064820152608490fd5b156111c757565b60405162461bcd60e51b8152602060048201526018602482015277115490cdcc8c4e881a5b9d985b1a59081d1bdad95b88125160421b6044820152606490fd5b6000908152600260205260409020546001600160a01b03166102868115156111c0565b90600182811c9216801561125a575b602083101461124457565b634e487b7160e01b600052602260045260246000fd5b91607f1691611239565b1561126b57565b60405162461bcd60e51b815260206004820152603d60248201527f4552433732313a20617070726f76652063616c6c6572206973206e6f7420746f60448201527f6b656e206f776e6572206f7220617070726f76656420666f7220616c6c0000006064820152608490fd5b6000526008602052604060002090565b6000526009602052604060002090565b600052600a602052604060002090565b600052600b602052604060002090565b600052600c602052604060002090565b600052600d602052604060002090565b600052600e602052604060002090565b600052600f602052604060002090565b6000526010602052604060002090565b6000526011602052604060002090565b6000526012602052604060002090565b6000526013602052604060002090565b6113a76113a282611725565b6111c0565b6000908152600460205260409020546001600160a01b031690565b156113c957565b60405162461bcd60e51b815260206004820152602d60248201527f4552433732313a2063616c6c6572206973206e6f7420746f6b656e206f776e6560448201526c1c881bdc88185c1c1c9bdd9959609a1b6064820152608490fd5b60405190602082016001600160401b03811183821017611448575b60405260008252565b611450610512565b61143f565b9061147993929161146961050884336114f0565b6114748383836115b8565b6117b8565b1561148057565b60405162461bcd60e51b8152806114996004820161149d565b0390fd5b60809060208152603260208201527f4552433732313a207472616e7366657220746f206e6f6e20455243373231526560408201527131b2b4bb32b91034b6b83632b6b2b73a32b960711b60608201520190565b6001600160a01b038061150284611207565b169281831692848414948515611538575b50508315611522575b50505090565b61152e91929350611396565b161438808061151c565b60ff929550906115549160005260056020526040600020611132565b5416923880611513565b1561156557565b60405162461bcd60e51b815260206004820152602560248201527f4552433732313a207472616e736665722066726f6d20696e636f72726563742060448201526437bbb732b960d91b6064820152608490fd5b6115dc906115c584611207565b6001600160a01b038281169390918216841461155e565b83169283156116805761163a61166b9261160e856116086115fc8a611207565b6001600160a01b031690565b1461155e565b611635611625886000526004602052604060002090565b80546001600160a01b0319169055565b611118565b805460001901905561164b81611118565b60018154019055611666856000526002602052604060002090565b6110f9565b600080516020612737833981519152600080a4565b60405162461bcd60e51b8152602060048201526024808201527f4552433732313a207472616e7366657220746f20746865207a65726f206164646044820152637265737360e01b6064820152608490fd5b8160005260046020526116e88160406000206110f9565b6001600160a01b03806116fa84611207565b169116907f8c5be1e5ebec7d5bd14f71427d1e84f3dd0314c0f7b2291e5b200ac8c7c3b925600080a4565b6000908152600260205260409020546001600160a01b0316151590565b9081602091031261000e5751610286816101ac565b6001600160a01b03918216815291166020820152604081019190915260806060820181905261028692910190610250565b3d156117b3573d9061179982610574565b916117a76040519384610551565b82523d6000602084013e565b606090565b92909190823b15611872576117eb926020926000604051809681958294630a85bd0160e11b9a8b85523360048601611757565b03926001600160a01b03165af160009181611842575b506118345761180e611788565b8051908161182f5760405162461bcd60e51b8152806114996004820161149d565b602001fd5b6001600160e01b0319161490565b61186491925060203d811161186b575b61185c8183610551565b810190611742565b9038611801565b503d611852565b50505050600190565b9d9a98969492909c99979593916040519e8f9e8f916101e080845283016118a191610250565b82810360208401526118b291610250565b9080820390604001526118c491610250565b8d810360608f01526118d591610250565b8c810360808e01526118e691610250565b8b810360a08d01526118f791610250565b8a810360c08c015261190891610250565b89810360e08b015261191991610250565b8881036101008a015261192b91610250565b87810361012089015261193d91610250565b86810361014088015261194f91610250565b85810361016087015261196191610250565b6101808501939093526101a08401526001600160a01b03166101c0830152037fec6f5abb6d06f755fe8458400db290a6d243e9739e9df87d230b155081d9a21391a1565b90601f81116119b357505050565b600091825260208220906020601f850160051c830194106119ef575b601f0160051c01915b8281106119e457505050565b8181556001016119d8565b90925082906119cf565b81519192916001600160401b038111611ac8575b611a2181611a1b845461122a565b846119a5565b602080601f8311600114611a5d575081929394600092611a52575b50508160011b916000199060031b1c1916179055565b015190503880611a3c565b90601f19831695611a7385600052602060002090565b926000905b888210611ab057505083600195969710611a97575b505050811b019055565b015160001960f88460031b161c19169055388080611a8d565b80600185968294968601518155019501930190611a78565b611ad0610512565b611a0d565b929693949897959190986001600754019a8b60075560018060a01b038116968715611be257611bac611bd99a611b908f6102869f611bbe98611b9e611ba792611bd09f611bc79e86611b9592611b73611bb59e611b40611b3b611b3786611725565b1590565b611c26565b611b4f611b3b611b3786611725565b611b5881611118565b60018154019055611666846000526002602052604060002090565b60006000805160206127378339815191528180a4611b90876112d6565b6119f9565b611b90856112e6565b611b90836112f6565b611306565b611b908d611316565b611b908b611326565b611b9089611336565b611b9087611346565b611b9085611356565b611b9083611366565b606460405162461bcd60e51b815260206004820152602060248201527f4552433732313a206d696e7420746f20746865207a65726f20616464726573736044820152fd5b15611c2d57565b60405162461bcd60e51b815260206004820152601c60248201527b115490cdcc8c4e881d1bdad95b88185b1c9958591e481b5a5b9d195960221b6044820152606490fd5b809c9b9a9998979695949392918051611dad575b50508051611d9a575b508051611d87575b508051611d74575b508051611d61575b508051611d4e575b508051611d3b575b508051611d28575b508051611d15575b508051611d02575b508051611cef575b508051611ce1575050565b611b90611ced92611386565b565b611cfc90611b9084611376565b38611cd6565b611d0f90611b9085611366565b38611cce565b611d2290611b9086611356565b38611cc6565b611d3590611b9087611346565b38611cbe565b611d4890611b9088611336565b38611cb6565b611d5b90611b9089611326565b38611cae565b611d6e90611b908a611316565b38611ca6565b611d8190611b908b611306565b38611c9e565b611d9490611b908c6112f6565b38611c96565b611da790611b908d6112e6565b38611c8e565b611b90611db9926112d6565b8b38611c85565b6020906001600160401b038111611dd9575b60051b0190565b611de1610512565b611dd2565b50634e487b7160e01b600052601160045260246000fd5b6001906000198114611e0d570190565b611e15611de6565b0190565b50634e487b7160e01b600052603260045260246000fd5b600092918154611e3f8161122a565b92600191808316908115611e985750600114611e5c575b50505050565b90919293945060005260209081600020906000915b858310611e875750505050019038808080611e56565b805485840152918301918101611e71565b60ff1916845250505081151590910201915038808080611e56565b60408051919082016001600160401b03811183821017611ef5575b604052601582527468747470733a2f2f6176617461616172732e696f2f60581b6020830152565b611efd610512565b611ece565b90611e156020928281519485920161022d565b60405190606082016001600160401b03811183821017611f85575b604052604082527f6768696a6b6c6d6e6f707172737475767778797a303132333435363738392b2f6040837f4142434445464748494a4b4c4d4e4f505152535455565758595a61626364656660208201520152565b611f8d610512565b611f30565b9060028201809211611fa057565b611ced611de6565b9060208201809211611fa057565b600281901b91906001600160fe1b03811603611fa057565b90611fd882610574565b611fe56040519182610551565b8281528092611ff6601f1991610574565b0190602036910137565b8051156120e05761200f611f15565b61202b61202661201f8451611f92565b6003900490565b611fb6565b9161203d61203884611fa8565b611fce565b92835280815182019060208501935b82821061208e5750505060039051068060011461207d5760021461206e575090565b603d60f81b6000199091015290565b50613d3d60f01b6001199091015290565b9091936004906003809401938451600190603f9082828260121c16880101518553828282600c1c16880101518386015382828260061c168801015160028601531685010151908201530193919061204c565b50610286611424565b6120f2816112e6565b6120fb826112f6565b9161210581611306565b9061210f81611316565b61211882611326565b61212183611336565b61212a84611346565b9061213485611356565b9261213e86611366565b9461214887611376565b9661215290611386565b976040519a8b9a60208c016c3f6176617461725374796c653d60981b9052602d8c0161217d91611e30565b6826746f70547970653d60b81b815260090161219891611e30565b6a2668616972436f6c6f723d60a81b8152600b016121b591611e30565b6c2665796562726f77547970653d60981b8152600d016121d491611e30565b6826657965547970653d60b81b81526009016121ef91611e30565b70266163636573736f72696573547970653d60781b815260110161221291611e30565b6a266d6f757468547970653d60a81b8152600b0161222f91611e30565b6f2666616369616c48616972547970653d60801b815260100161225191611e30565b6b26636c6f746865547970653d60a01b8152600c0161226f91611e30565b6c26636c6f746865436f6c6f723d60981b8152600d0161228e91611e30565b6c2667726170686963547970653d60981b8152600d016122ad91611e30565b03601f19810182526102869082610551565b6122c8816112e6565b6122d1826112f6565b916122db81611306565b906122e581611316565b6122ee82611326565b6122f783611336565b61230084611346565b9061230a85611356565b9261231486611366565b9461231e87611376565b9661232890611386565b976040519a8b9a60208c017f7b202274726169745f74797065223a20226176617461725374796c65222c20229052683b30b63ab291101d1160b91b60408d015260498c0161237591611e30565b7f227d2c207b2274726169745f74797065223a2022746f7054797065222c20227681526730b63ab291101d1160c11b60208201526028016123b591611e30565b7f227d2c7b2274726169745f74797065223a202268616972436f6c6f72222c20228152683b30b63ab291101d1160b91b60208201526029016123f691611e30565b7f227d2c207b2274726169745f74797065223a202265796562726f77547970652281526b1610113b30b63ab291101d1160a11b6020820152602c0161243a91611e30565b7f227d2c207b2274726169745f74797065223a202265796554797065222c20227681526730b63ab291101d1160c11b602082015260280161247a91611e30565b7f227d2c207b2274726169745f74797065223a20226163636573736f726965735481526f3cb832911610113b30b63ab291101d1160811b60208201526030016124c291611e30565b7f227d2c7b2274726169745f74797065223a20226d6f75746854797065222c20228152683b30b63ab291101d1160b91b602082015260290161250391611e30565b7f227d2c207b2274726169745f74797065223a202266616369616c48616972547981526e3832911610113b30b63ab291101d1160891b6020820152602f0161254a91611e30565b7f227d2c207b2274726169745f74797065223a2022636c6f74686554797065222c81526a10113b30b63ab291101d1160a91b6020820152602b0161258d91611e30565b7f227d2c207b2274726169745f74797065223a2022636c6f746865436f6c6f722281526b1610113b30b63ab291101d1160a11b6020820152602c016125d191611e30565b7f227d2c7b2274726169745f74797065223a20226772617068696354797065222c81526a10113b30b63ab291101d1160a91b6020820152602b0161261491611e30565b620113e960ed1b81526003016122ad565b602190805160011015612636570190565b611e15611e19565b90602091805182101561265057010190565b612658611e19565b010190565b801561266b575b6000190190565b612673611de6565b612664565b6040519061268582610529565b602a82526030602083016040368237835115612709575b5360786126a883612625565b536029905b600182116126ba57505090565b80600f6126f6921660108110156126fc575b6f181899199a1a9b1b9c1cb0b131b232b360811b901a6126ec848661263e565b5360041c9161265d565b906126ad565b612704611e19565b6126cc565b612711611e19565b61269c56fe8be0079c531659141344cd1fd0a4f28419497f9722a3daafe3b4186f6b6457e0ddf252ad1be2c89b69c2b068fc378daa952ba7f163c4a11628f55a4df523b3efa26469706673582212209ac1ca42b7415347598f52300bb51d11d95d0b8f14a48110633d2d707be07a7964736f6c63430008110033","opcodes":"PUSH1 0x80 CALLVALUE PUSH3 0x37B JUMPI PUSH1 0x1 PUSH1 0x1 PUSH1 0x40 SHL SUB PUSH1 0x1F NOT PUSH1 0x1F PUSH3 0x2B2D CODESIZE DUP2 SWAP1 SUB DUP3 DUP2 ADD DUP5 AND DUP7 ADD DUP6 DUP2 GT DUP8 DUP3 LT OR PUSH3 0x365 JUMPI DUP7 SWAP3 DUP3 SWAP2 PUSH1 0x40 MSTORE DUP4 CODECOPY PUSH1 0x20 SWAP6 DUP7 SWAP2 DUP2 ADD SUB SLT PUSH3 0x37B JUMPI MLOAD PUSH1 0x1 PUSH1 0x1 PUSH1 0xA0 SHL SUB SWAP4 SWAP1 DUP5 DUP2 AND SUB PUSH3 0x37B JUMPI PUSH3 0x64 PUSH3 0x380 JUMP JUMPDEST SWAP2 PUSH1 0x6 DUP4 MSTORE PUSH6 0x4E494D425553 PUSH1 0xD0 SHL DUP7 DUP5 ADD MSTORE PUSH3 0x81 PUSH3 0x380 JUMP JUMPDEST SWAP6 PUSH1 0x3 DUP8 MSTORE PUSH3 0x4E494D PUSH1 0xE8 SHL DUP2 DUP9 ADD MSTORE DUP4 MLOAD SWAP5 DUP4 DUP7 GT PUSH3 0x365 JUMPI PUSH1 0x0 SWAP6 DUP7 SLOAD SWAP6 PUSH1 0x1 SWAP7 DUP8 DUP2 DUP2 SHR SWAP2 AND DUP1 ISZERO PUSH3 0x35A JUMPI JUMPDEST DUP6 DUP3 LT EQ PUSH3 0x346 JUMPI SWAP1 DUP2 DUP7 DUP5 SWAP4 GT PUSH3 0x2F3 JUMPI JUMPDEST POP DUP5 SWAP1 DUP7 DUP4 GT PUSH1 0x1 EQ PUSH3 0x292 JUMPI DUP10 SWAP3 PUSH3 0x286 JUMPI JUMPDEST POP POP PUSH1 0x0 NOT PUSH1 0x3 DUP4 SWAP1 SHL SHR NOT AND SWAP1 DUP7 SHL OR DUP7 SSTORE JUMPDEST DUP8 MLOAD SWAP4 DUP5 GT PUSH3 0x272 JUMPI DUP5 SLOAD DUP6 DUP2 DUP2 SHR SWAP2 AND DUP1 ISZERO PUSH3 0x267 JUMPI JUMPDEST DUP4 DUP3 LT EQ PUSH3 0x253 JUMPI DUP4 DUP2 GT PUSH3 0x20B JUMPI JUMPDEST POP DUP2 SWAP3 DUP5 GT PUSH1 0x1 EQ PUSH3 0x1A5 JUMPI POP POP DUP4 SWAP5 SWAP6 DUP3 SWAP4 SWAP5 SWAP3 PUSH3 0x199 JUMPI JUMPDEST POP POP PUSH1 0x0 NOT PUSH1 0x3 DUP4 SWAP1 SHL SHR NOT AND SWAP1 DUP3 SHL OR SWAP1 SSTORE JUMPDEST PUSH1 0x6 SLOAD SWAP1 CALLER PUSH1 0x1 DUP1 PUSH1 0xA0 SHL SUB NOT DUP4 AND OR PUSH1 0x6 SSTORE PUSH32 0x8BE0079C531659141344CD1FD0A4F28419497F9722A3DAAFE3B4186F6B6457E0 PUSH1 0x40 MLOAD SWAP4 CALLER SWAP4 AND SWAP2 DUP1 LOG3 PUSH2 0x278C SWAP1 DUP2 PUSH3 0x3A1 DUP3 CODECOPY RETURN JUMPDEST ADD MLOAD SWAP1 POP CODESIZE DUP1 PUSH3 0x13A JUMP JUMPDEST DUP4 SWAP3 SWAP2 SWAP3 AND SWAP7 DUP5 DUP7 MSTORE DUP3 DUP7 KECCAK256 SWAP3 DUP7 SWAP1 JUMPDEST DUP10 DUP3 LT PUSH3 0x1F3 JUMPI POP POP DUP4 DUP6 SWAP7 SWAP8 SWAP9 LT PUSH3 0x1D9 JUMPI JUMPDEST POP POP POP DUP2 SHL ADD SWAP1 SSTORE PUSH3 0x14E JUMP JUMPDEST ADD MLOAD PUSH1 0x0 NOT PUSH1 0xF8 DUP5 PUSH1 0x3 SHL AND SHR NOT AND SWAP1 SSTORE CODESIZE DUP1 DUP1 PUSH3 0x1CB JUMP JUMPDEST DUP1 DUP8 DUP6 SWAP7 DUP3 SWAP5 SWAP7 DUP7 ADD MLOAD DUP2 SSTORE ADD SWAP6 ADD SWAP4 ADD SWAP1 PUSH3 0x1B5 JUMP JUMPDEST DUP6 DUP8 MSTORE DUP3 DUP8 KECCAK256 DUP5 DUP1 DUP8 ADD PUSH1 0x5 SHR DUP3 ADD SWAP3 DUP6 DUP9 LT PUSH3 0x249 JUMPI JUMPDEST ADD PUSH1 0x5 SHR ADD SWAP1 DUP7 SWAP1 JUMPDEST DUP3 DUP2 LT PUSH3 0x23D JUMPI POP POP PUSH3 0x11E JUMP JUMPDEST DUP9 DUP2 SSTORE ADD DUP7 SWAP1 PUSH3 0x22D JUMP JUMPDEST SWAP3 POP DUP2 SWAP3 PUSH3 0x224 JUMP JUMPDEST PUSH4 0x4E487B71 PUSH1 0xE0 SHL DUP8 MSTORE PUSH1 0x22 PUSH1 0x4 MSTORE PUSH1 0x24 DUP8 REVERT JUMPDEST SWAP1 PUSH1 0x7F AND SWAP1 PUSH3 0x10C JUMP JUMPDEST PUSH4 0x4E487B71 PUSH1 0xE0 SHL DUP7 MSTORE PUSH1 0x41 PUSH1 0x4 MSTORE PUSH1 0x24 DUP7 REVERT JUMPDEST ADD MLOAD SWAP1 POP CODESIZE DUP1 PUSH3 0xDE JUMP JUMPDEST SWAP1 DUP5 DUP10 SWAP5 AND SWAP2 DUP11 DUP1 MSTORE DUP7 DUP12 KECCAK256 SWAP3 DUP12 JUMPDEST DUP9 DUP3 DUP3 LT PUSH3 0x2DC JUMPI POP POP DUP5 GT PUSH3 0x2C2 JUMPI JUMPDEST POP POP POP DUP2 SHL ADD DUP7 SSTORE PUSH3 0xF2 JUMP JUMPDEST ADD MLOAD PUSH1 0x0 NOT PUSH1 0xF8 DUP5 PUSH1 0x3 SHL AND SHR NOT AND SWAP1 SSTORE CODESIZE DUP1 DUP1 PUSH3 0x2B4 JUMP JUMPDEST DUP4 DUP6 ADD MLOAD DUP7 SSTORE DUP13 SWAP8 SWAP1 SWAP6 ADD SWAP5 SWAP4 DUP5 ADD SWAP4 ADD PUSH3 0x2A1 JUMP JUMPDEST SWAP1 SWAP2 POP DUP9 DUP1 MSTORE DUP5 DUP10 KECCAK256 DUP7 DUP1 DUP6 ADD PUSH1 0x5 SHR DUP3 ADD SWAP3 DUP8 DUP7 LT PUSH3 0x33C JUMPI JUMPDEST SWAP2 DUP11 SWAP2 DUP7 SWAP6 SWAP5 SWAP4 ADD PUSH1 0x5 SHR ADD SWAP2 JUMPDEST DUP3 DUP2 LT PUSH3 0x32D JUMPI POP POP PUSH3 0xC8 JUMP JUMPDEST DUP12 DUP2 SSTORE DUP6 SWAP5 POP DUP11 SWAP2 ADD PUSH3 0x31D JUMP JUMPDEST SWAP3 POP DUP2 SWAP3 PUSH3 0x30F JUMP JUMPDEST PUSH4 0x4E487B71 PUSH1 0xE0 SHL DUP10 MSTORE PUSH1 0x22 PUSH1 0x4 MSTORE PUSH1 0x24 DUP10 REVERT JUMPDEST SWAP1 PUSH1 0x7F AND SWAP1 PUSH3 0xB3 JUMP JUMPDEST PUSH4 0x4E487B71 PUSH1 0xE0 SHL PUSH1 0x0 MSTORE PUSH1 0x41 PUSH1 0x4 MSTORE PUSH1 0x24 PUSH1 0x0 REVERT JUMPDEST PUSH1 0x0 DUP1 REVERT JUMPDEST PUSH1 0x40 DUP1 MLOAD SWAP2 SWAP1 DUP3 ADD PUSH1 0x1 PUSH1 0x1 PUSH1 0x40 SHL SUB DUP2 GT DUP4 DUP3 LT OR PUSH3 0x365 JUMPI PUSH1 0x40 MSTORE JUMP INVALID PUSH1 0x80 PUSH1 0x40 MSTORE PUSH1 0x4 CALLDATASIZE LT ISZERO PUSH2 0x13 JUMPI JUMPDEST PUSH1 0x0 DUP1 REVERT JUMPDEST PUSH1 0x0 CALLDATALOAD PUSH1 0xE0 SHR DUP1 PUSH4 0x1FFC9A7 EQ PUSH2 0x1A3 JUMPI DUP1 PUSH4 0x6FDDE03 EQ PUSH2 0x19A JUMPI DUP1 PUSH4 0x81812FC EQ PUSH2 0x191 JUMPI DUP1 PUSH4 0x95EA7B3 EQ PUSH2 0x188 JUMPI DUP1 PUSH4 0x23B872DD EQ PUSH2 0x17F JUMPI DUP1 PUSH4 0x3D0087CC EQ PUSH2 0x176 JUMPI DUP1 PUSH4 0x42842E0E EQ PUSH2 0x16D JUMPI DUP1 PUSH4 0x6352211E EQ PUSH2 0x164 JUMPI DUP1 PUSH4 0x70A08231 EQ PUSH2 0x15B JUMPI DUP1 PUSH4 0x715018A6 EQ PUSH2 0x152 JUMPI DUP1 PUSH4 0x768C8A0A EQ PUSH2 0x149 JUMPI DUP1 PUSH4 0x8DA5CB5B EQ PUSH2 0x140 JUMPI DUP1 PUSH4 0x95D89B41 EQ PUSH2 0x137 JUMPI DUP1 PUSH4 0xA22CB465 EQ PUSH2 0x12E JUMPI DUP1 PUSH4 0xB88D4FDE EQ PUSH2 0x125 JUMPI DUP1 PUSH4 0xC87B56DD EQ PUSH2 0x11C JUMPI DUP1 PUSH4 0xD94719DC EQ PUSH2 0x113 JUMPI DUP1 PUSH4 0xE985E9C5 EQ PUSH2 0x10A JUMPI DUP1 PUSH4 0xF20FD529 EQ PUSH2 0x101 JUMPI PUSH4 0xF2FDE38B EQ PUSH2 0xF9 JUMPI PUSH1 0x0 DUP1 REVERT JUMPDEST PUSH2 0xE PUSH2 0xFEF JUMP JUMPDEST POP PUSH2 0xE PUSH2 0xEAA JUMP JUMPDEST POP PUSH2 0xE PUSH2 0xE58 JUMP JUMPDEST POP PUSH2 0xE PUSH2 0xD84 JUMP JUMPDEST POP PUSH2 0xE PUSH2 0xB3B JUMP JUMPDEST POP PUSH2 0xE PUSH2 0xADB JUMP JUMPDEST POP PUSH2 0xE PUSH2 0xA04 JUMP JUMPDEST POP PUSH2 0xE PUSH2 0x97E JUMP JUMPDEST POP PUSH2 0xE PUSH2 0x954 JUMP JUMPDEST POP PUSH2 0xE PUSH2 0x828 JUMP JUMPDEST POP PUSH2 0xE PUSH2 0x7DB JUMP JUMPDEST POP PUSH2 0xE PUSH2 0x7AF JUMP JUMPDEST POP PUSH2 0xE PUSH2 0x790 JUMP JUMPDEST POP PUSH2 0xE PUSH2 0x747 JUMP JUMPDEST POP PUSH2 0xE PUSH2 0x5F0 JUMP JUMPDEST POP PUSH2 0xE PUSH2 0x4E8 JUMP JUMPDEST POP PUSH2 0xE PUSH2 0x3D6 JUMP JUMPDEST POP PUSH2 0xE PUSH2 0x34B JUMP JUMPDEST POP PUSH2 0xE PUSH2 0x289 JUMP JUMPDEST POP PUSH2 0xE PUSH2 0x1BE JUMP JUMPDEST PUSH1 0x1 PUSH1 0x1 PUSH1 0xE0 SHL SUB NOT DUP2 AND SUB PUSH2 0xE JUMPI JUMP JUMPDEST POP CALLVALUE PUSH2 0xE JUMPI PUSH1 0x20 CALLDATASIZE PUSH1 0x3 NOT ADD SLT PUSH2 0xE JUMPI PUSH1 0x20 PUSH1 0x4 CALLDATALOAD PUSH2 0x1DE DUP2 PUSH2 0x1AC JUMP JUMPDEST PUSH4 0xFFFFFFFF PUSH1 0xE0 SHL AND PUSH4 0x80AC58CD PUSH1 0xE0 SHL DUP2 EQ SWAP1 DUP2 ISZERO PUSH2 0x21C JUMPI JUMPDEST DUP2 ISZERO PUSH2 0x20B JUMPI JUMPDEST POP PUSH1 0x40 MLOAD SWAP1 ISZERO ISZERO DUP2 MSTORE RETURN JUMPDEST PUSH4 0x1FFC9A7 PUSH1 0xE0 SHL EQ SWAP1 POP CODESIZE PUSH2 0x200 JUMP JUMPDEST PUSH4 0x5B5E139F PUSH1 0xE0 SHL DUP2 EQ SWAP2 POP PUSH2 0x1F9 JUMP JUMPDEST PUSH1 0x0 JUMPDEST DUP4 DUP2 LT PUSH2 0x240 JUMPI POP POP PUSH1 0x0 SWAP2 ADD MSTORE JUMP JUMPDEST DUP2 DUP2 ADD MLOAD DUP4 DUP3 ADD MSTORE PUSH1 0x20 ADD PUSH2 0x230 JUMP JUMPDEST SWAP1 PUSH1 0x20 SWAP2 PUSH2 0x269 DUP2 MLOAD DUP1 SWAP3 DUP2 DUP6 MSTORE DUP6 DUP1 DUP7 ADD SWAP2 ADD PUSH2 0x22D JUMP JUMPDEST PUSH1 0x1F ADD PUSH1 0x1F NOT AND ADD ADD SWAP1 JUMP JUMPDEST SWAP1 PUSH1 0x20 PUSH2 0x286 SWAP3 DUP2 DUP2 MSTORE ADD SWAP1 PUSH2 0x250 JUMP JUMPDEST SWAP1 JUMP JUMPDEST POP CALLVALUE PUSH2 0xE JUMPI PUSH1 0x0 DUP1 PUSH1 0x3 NOT CALLDATASIZE ADD SLT PUSH2 0x348 JUMPI PUSH1 0x40 MLOAD DUP2 DUP1 SLOAD PUSH2 0x2AB DUP2 PUSH2 0x122A JUMP JUMPDEST DUP1 DUP5 MSTORE SWAP1 PUSH1 0x1 SWAP1 DUP2 DUP2 AND SWAP1 DUP2 ISZERO PUSH2 0x320 JUMPI POP PUSH1 0x1 EQ PUSH2 0x2E5 JUMPI JUMPDEST PUSH2 0x2E1 DUP5 PUSH2 0x2D5 DUP2 DUP9 SUB DUP3 PUSH2 0x551 JUMP JUMPDEST PUSH1 0x40 MLOAD SWAP2 DUP3 SWAP2 DUP3 PUSH2 0x275 JUMP JUMPDEST SUB SWAP1 RETURN JUMPDEST SWAP4 POP DUP2 DUP1 MSTORE PUSH1 0x20 SWAP4 DUP5 DUP4 KECCAK256 JUMPDEST DUP3 DUP5 LT PUSH2 0x30D JUMPI POP POP POP DUP2 PUSH2 0x2E1 SWAP4 PUSH2 0x2D5 SWAP3 DUP3 ADD ADD SWAP4 PUSH2 0x2C5 JUMP JUMPDEST DUP1 SLOAD DUP6 DUP6 ADD DUP8 ADD MSTORE SWAP3 DUP6 ADD SWAP3 DUP2 ADD PUSH2 0x2F1 JUMP JUMPDEST PUSH2 0x2E1 SWAP7 POP PUSH2 0x2D5 SWAP5 POP PUSH1 0x20 SWAP3 POP DUP6 SWAP4 SWAP2 POP PUSH1 0xFF NOT AND DUP3 DUP5 ADD MSTORE ISZERO ISZERO PUSH1 0x5 SHL DUP3 ADD ADD SWAP4 PUSH2 0x2C5 JUMP JUMPDEST DUP1 REVERT JUMPDEST POP CALLVALUE PUSH2 0xE JUMPI PUSH1 0x20 CALLDATASIZE PUSH1 0x3 NOT ADD SLT PUSH2 0xE JUMPI PUSH1 0x20 PUSH2 0x36A PUSH1 0x4 CALLDATALOAD PUSH2 0x1396 JUMP JUMPDEST PUSH1 0x40 MLOAD PUSH1 0x1 PUSH1 0x1 PUSH1 0xA0 SHL SUB SWAP1 SWAP2 AND DUP2 MSTORE RETURN JUMPDEST PUSH1 0x4 CALLDATALOAD SWAP1 PUSH1 0x1 PUSH1 0x1 PUSH1 0xA0 SHL SUB DUP3 AND DUP3 SUB PUSH2 0xE JUMPI JUMP JUMPDEST PUSH2 0x1C4 CALLDATALOAD SWAP1 PUSH1 0x1 PUSH1 0x1 PUSH1 0xA0 SHL SUB DUP3 AND DUP3 SUB PUSH2 0xE JUMPI JUMP JUMPDEST PUSH2 0x144 CALLDATALOAD SWAP1 PUSH1 0x1 PUSH1 0x1 PUSH1 0xA0 SHL SUB DUP3 AND DUP3 SUB PUSH2 0xE JUMPI JUMP JUMPDEST PUSH1 0x24 CALLDATALOAD SWAP1 PUSH1 0x1 PUSH1 0x1 PUSH1 0xA0 SHL SUB DUP3 AND DUP3 SUB PUSH2 0xE JUMPI JUMP JUMPDEST POP CALLVALUE PUSH2 0xE JUMPI PUSH1 0x40 CALLDATASIZE PUSH1 0x3 NOT ADD SLT PUSH2 0xE JUMPI PUSH2 0x3F0 PUSH2 0x37C JUMP JUMPDEST PUSH1 0x24 CALLDATALOAD PUSH2 0x3FC DUP2 PUSH2 0x1207 JUMP JUMPDEST SWAP2 PUSH1 0x1 PUSH1 0x1 PUSH1 0xA0 SHL SUB DUP1 DUP5 AND SWAP1 DUP3 AND DUP2 EQ PUSH2 0x464 JUMPI PUSH2 0x42E SWAP4 PUSH2 0x429 SWAP2 CALLER EQ SWAP1 DUP2 ISZERO PUSH2 0x430 JUMPI JUMPDEST POP PUSH2 0x1264 JUMP JUMPDEST PUSH2 0x16D1 JUMP JUMPDEST STOP JUMPDEST PUSH1 0x1 PUSH1 0x1 PUSH1 0xA0 SHL SUB AND PUSH1 0x0 SWAP1 DUP2 MSTORE PUSH1 0x5 PUSH1 0x20 MSTORE PUSH1 0x40 SWAP1 KECCAK256 PUSH2 0x45E SWAP2 POP PUSH2 0x457 SWAP1 CALLER SWAP1 PUSH2 0x1132 JUMP JUMPDEST SLOAD PUSH1 0xFF AND SWAP1 JUMP JUMPDEST CODESIZE PUSH2 0x423 JUMP JUMPDEST PUSH1 0x40 MLOAD PUSH3 0x461BCD PUSH1 0xE5 SHL DUP2 MSTORE PUSH1 0x20 PUSH1 0x4 DUP3 ADD MSTORE PUSH1 0x21 PUSH1 0x24 DUP3 ADD MSTORE PUSH32 0x4552433732313A20617070726F76616C20746F2063757272656E74206F776E65 PUSH1 0x44 DUP3 ADD MSTORE PUSH1 0x39 PUSH1 0xF9 SHL PUSH1 0x64 DUP3 ADD MSTORE PUSH1 0x84 SWAP1 REVERT JUMPDEST PUSH1 0x60 SWAP1 PUSH1 0x3 NOT ADD SLT PUSH2 0xE JUMPI PUSH1 0x1 PUSH1 0x1 PUSH1 0xA0 SHL SUB SWAP1 PUSH1 0x4 CALLDATALOAD DUP3 DUP2 AND DUP2 SUB PUSH2 0xE JUMPI SWAP2 PUSH1 0x24 CALLDATALOAD SWAP1 DUP2 AND DUP2 SUB PUSH2 0xE JUMPI SWAP1 PUSH1 0x44 CALLDATALOAD SWAP1 JUMP JUMPDEST POP CALLVALUE PUSH2 0xE JUMPI PUSH2 0x42E PUSH2 0x4FA CALLDATASIZE PUSH2 0x4B3 JUMP JUMPDEST SWAP2 PUSH2 0x50D PUSH2 0x508 DUP5 CALLER PUSH2 0x14F0 JUMP JUMPDEST PUSH2 0x13C2 JUMP JUMPDEST PUSH2 0x15B8 JUMP JUMPDEST POP PUSH4 0x4E487B71 PUSH1 0xE0 SHL PUSH1 0x0 MSTORE PUSH1 0x41 PUSH1 0x4 MSTORE PUSH1 0x24 PUSH1 0x0 REVERT JUMPDEST PUSH1 0x60 DUP2 ADD SWAP1 DUP2 LT PUSH1 0x1 PUSH1 0x1 PUSH1 0x40 SHL SUB DUP3 GT OR PUSH2 0x544 JUMPI PUSH1 0x40 MSTORE JUMP JUMPDEST PUSH2 0x54C PUSH2 0x512 JUMP JUMPDEST PUSH1 0x40 MSTORE JUMP JUMPDEST PUSH1 0x1F SWAP1 SWAP2 ADD PUSH1 0x1F NOT AND DUP2 ADD SWAP1 PUSH1 0x1 PUSH1 0x1 PUSH1 0x40 SHL SUB DUP3 GT SWAP1 DUP3 LT OR PUSH2 0x544 JUMPI PUSH1 0x40 MSTORE JUMP JUMPDEST PUSH1 0x20 SWAP1 PUSH1 0x1 PUSH1 0x1 PUSH1 0x40 SHL SUB DUP2 GT PUSH2 0x591 JUMPI JUMPDEST PUSH1 0x1F ADD PUSH1 0x1F NOT AND ADD SWAP1 JUMP JUMPDEST PUSH2 0x599 PUSH2 0x512 JUMP JUMPDEST PUSH2 0x586 JUMP JUMPDEST SWAP3 SWAP2 SWAP3 PUSH2 0x5AA DUP3 PUSH2 0x574 JUMP JUMPDEST SWAP2 PUSH2 0x5B8 PUSH1 0x40 MLOAD SWAP4 DUP5 PUSH2 0x551 JUMP JUMPDEST DUP3 SWAP5 DUP2 DUP5 MSTORE DUP2 DUP4 ADD GT PUSH2 0xE JUMPI DUP3 DUP2 PUSH1 0x20 SWAP4 DUP5 PUSH1 0x0 SWAP7 ADD CALLDATACOPY ADD ADD MSTORE JUMP JUMPDEST SWAP1 DUP1 PUSH1 0x1F DUP4 ADD SLT ISZERO PUSH2 0xE JUMPI DUP2 PUSH1 0x20 PUSH2 0x286 SWAP4 CALLDATALOAD SWAP2 ADD PUSH2 0x59E JUMP JUMPDEST POP CALLVALUE PUSH2 0xE JUMPI PUSH2 0x1E0 CALLDATASIZE PUSH1 0x3 NOT ADD SLT PUSH2 0xE JUMPI PUSH1 0x4 PUSH1 0x1 PUSH1 0x1 PUSH1 0x40 SHL SUB DUP2 CALLDATALOAD DUP2 DUP2 GT PUSH2 0xE JUMPI PUSH2 0x623 SWAP1 CALLDATASIZE SWAP1 DUP5 ADD PUSH2 0x5D5 JUMP JUMPDEST PUSH1 0x24 CALLDATALOAD DUP3 DUP2 GT PUSH2 0xE JUMPI PUSH2 0x63A SWAP1 CALLDATASIZE SWAP1 DUP6 ADD PUSH2 0x5D5 JUMP JUMPDEST SWAP1 PUSH1 0x44 CALLDATALOAD DUP4 DUP2 GT PUSH2 0xE JUMPI PUSH2 0x652 SWAP1 CALLDATASIZE SWAP1 DUP7 ADD PUSH2 0x5D5 JUMP JUMPDEST SWAP3 PUSH1 0x64 CALLDATALOAD DUP2 DUP2 GT PUSH2 0xE JUMPI PUSH2 0x66A SWAP1 CALLDATASIZE SWAP1 DUP8 ADD PUSH2 0x5D5 JUMP JUMPDEST SWAP1 PUSH1 0x84 CALLDATALOAD DUP2 DUP2 GT PUSH2 0xE JUMPI PUSH2 0x682 SWAP1 CALLDATASIZE SWAP1 DUP9 ADD PUSH2 0x5D5 JUMP JUMPDEST PUSH1 0xA4 CALLDATALOAD DUP3 DUP2 GT PUSH2 0xE JUMPI PUSH2 0x699 SWAP1 CALLDATASIZE SWAP1 DUP10 ADD PUSH2 0x5D5 JUMP JUMPDEST PUSH1 0xC4 CALLDATALOAD DUP4 DUP2 GT PUSH2 0xE JUMPI PUSH2 0x6B0 SWAP1 CALLDATASIZE SWAP1 DUP11 ADD PUSH2 0x5D5 JUMP JUMPDEST PUSH1 0xE4 CALLDATALOAD DUP5 DUP2 GT PUSH2 0xE JUMPI PUSH2 0x6C7 SWAP1 CALLDATASIZE SWAP1 DUP12 ADD PUSH2 0x5D5 JUMP JUMPDEST SWAP1 PUSH2 0x104 CALLDATALOAD DUP6 DUP2 GT PUSH2 0xE JUMPI PUSH2 0x6E0 SWAP1 CALLDATASIZE SWAP1 DUP13 ADD PUSH2 0x5D5 JUMP JUMPDEST SWAP3 PUSH2 0x124 CALLDATALOAD DUP7 DUP2 GT PUSH2 0xE JUMPI PUSH2 0x6F9 SWAP1 CALLDATASIZE SWAP1 DUP14 ADD PUSH2 0x5D5 JUMP JUMPDEST SWAP5 PUSH2 0x144 CALLDATALOAD DUP8 DUP2 GT PUSH2 0xE JUMPI DUP13 PUSH2 0x712 SWAP2 CALLDATASIZE SWAP2 ADD PUSH2 0x5D5 JUMP JUMPDEST SWAP7 PUSH2 0x164 CALLDATALOAD SWAP1 DUP2 GT PUSH2 0xE JUMPI PUSH2 0x42E SWAP13 PUSH2 0x72E SWAP2 CALLDATASIZE SWAP2 ADD PUSH2 0x5D5 JUMP JUMPDEST SWAP8 PUSH2 0x737 PUSH2 0x392 JUMP JUMPDEST SWAP12 PUSH2 0x1A4 CALLDATALOAD SWAP12 PUSH2 0x184 CALLDATALOAD SWAP12 PUSH2 0x187B JUMP JUMPDEST POP CALLVALUE PUSH2 0xE JUMPI PUSH2 0x42E PUSH2 0x759 CALLDATASIZE PUSH2 0x4B3 JUMP JUMPDEST PUSH1 0x40 MLOAD SWAP3 SWAP1 SWAP2 SWAP1 PUSH1 0x20 DUP5 ADD PUSH1 0x1 PUSH1 0x1 PUSH1 0x40 SHL SUB DUP2 GT DUP6 DUP3 LT OR PUSH2 0x783 JUMPI JUMPDEST PUSH1 0x40 MSTORE PUSH1 0x0 DUP5 MSTORE PUSH2 0x1455 JUMP JUMPDEST PUSH2 0x78B PUSH2 0x512 JUMP JUMPDEST PUSH2 0x777 JUMP JUMPDEST POP CALLVALUE PUSH2 0xE JUMPI PUSH1 0x20 CALLDATASIZE PUSH1 0x3 NOT ADD SLT PUSH2 0xE JUMPI PUSH1 0x20 PUSH2 0x36A PUSH1 0x4 CALLDATALOAD PUSH2 0x1207 JUMP JUMPDEST POP CALLVALUE PUSH2 0xE JUMPI PUSH1 0x20 CALLDATASIZE PUSH1 0x3 NOT ADD SLT PUSH2 0xE JUMPI PUSH1 0x20 PUSH2 0x7D3 PUSH2 0x7CE PUSH2 0x37C JUMP JUMPDEST PUSH2 0x1149 JUMP JUMPDEST PUSH1 0x40 MLOAD SWAP1 DUP2 MSTORE RETURN JUMPDEST POP CALLVALUE PUSH2 0xE JUMPI PUSH1 0x0 DUP1 PUSH1 0x3 NOT CALLDATASIZE ADD SLT PUSH2 0x348 JUMPI PUSH2 0x7F6 PUSH2 0x10A1 JUMP JUMPDEST PUSH1 0x6 DUP1 SLOAD PUSH1 0x1 PUSH1 0x1 PUSH1 0xA0 SHL SUB NOT DUP2 AND SWAP1 SWAP2 SSTORE DUP2 SWAP1 PUSH1 0x1 PUSH1 0x1 PUSH1 0xA0 SHL SUB AND PUSH1 0x0 DUP1 MLOAD PUSH1 0x20 PUSH2 0x2717 DUP4 CODECOPY DUP2 MLOAD SWAP2 MSTORE DUP3 DUP1 LOG3 DUP1 RETURN JUMPDEST POP CALLVALUE PUSH2 0xE JUMPI PUSH2 0x160 CALLDATASIZE PUSH1 0x3 NOT ADD SLT PUSH2 0xE JUMPI PUSH1 0x1 PUSH1 0x1 PUSH1 0x40 SHL SUB PUSH1 0x4 DUP1 CALLDATALOAD DUP3 DUP2 GT PUSH2 0xE JUMPI PUSH2 0x85B SWAP1 CALLDATASIZE SWAP1 DUP4 ADD PUSH2 0x5D5 JUMP JUMPDEST PUSH1 0x24 CALLDATALOAD DUP4 DUP2 GT PUSH2 0xE JUMPI PUSH2 0x872 SWAP1 CALLDATASIZE SWAP1 DUP5 ADD PUSH2 0x5D5 JUMP JUMPDEST PUSH1 0x44 CALLDATALOAD DUP5 DUP2 GT PUSH2 0xE JUMPI PUSH2 0x889 SWAP1 CALLDATASIZE SWAP1 DUP6 ADD PUSH2 0x5D5 JUMP JUMPDEST PUSH1 0x64 CALLDATALOAD DUP6 DUP2 GT PUSH2 0xE JUMPI PUSH2 0x8A0 SWAP1 CALLDATASIZE SWAP1 DUP7 ADD PUSH2 0x5D5 JUMP JUMPDEST PUSH1 0x84 CALLDATALOAD DUP7 DUP2 GT PUSH2 0xE JUMPI PUSH2 0x8B7 SWAP1 CALLDATASIZE SWAP1 DUP8 ADD PUSH2 0x5D5 JUMP JUMPDEST PUSH1 0xA4 CALLDATALOAD DUP8 DUP2 GT PUSH2 0xE JUMPI PUSH2 0x8CE SWAP1 CALLDATASIZE SWAP1 DUP9 ADD PUSH2 0x5D5 JUMP JUMPDEST PUSH1 0xC4 CALLDATALOAD DUP9 DUP2 GT PUSH2 0xE JUMPI PUSH2 0x8E5 SWAP1 CALLDATASIZE SWAP1 DUP10 ADD PUSH2 0x5D5 JUMP JUMPDEST SWAP2 PUSH1 0xE4 CALLDATALOAD DUP10 DUP2 GT PUSH2 0xE JUMPI PUSH2 0x8FD SWAP1 CALLDATASIZE SWAP1 DUP11 ADD PUSH2 0x5D5 JUMP JUMPDEST SWAP4 PUSH2 0x104 CALLDATALOAD DUP11 DUP2 GT PUSH2 0xE JUMPI PUSH2 0x916 SWAP1 CALLDATASIZE SWAP1 DUP12 ADD PUSH2 0x5D5 JUMP JUMPDEST SWAP6 PUSH2 0x124 CALLDATALOAD SWAP11 DUP12 GT PUSH2 0xE JUMPI PUSH2 0x935 PUSH2 0x944 SWAP11 PUSH2 0x2E1 SWAP13 CALLDATASIZE SWAP2 ADD PUSH2 0x5D5 JUMP JUMPDEST SWAP8 PUSH2 0x93E PUSH2 0x3A9 JUMP JUMPDEST SWAP10 PUSH2 0x1AD5 JUMP JUMPDEST PUSH1 0x40 MLOAD SWAP1 DUP2 MSTORE SWAP1 DUP2 SWAP1 PUSH1 0x20 DUP3 ADD SWAP1 JUMP JUMPDEST POP CALLVALUE PUSH2 0xE JUMPI PUSH1 0x0 CALLDATASIZE PUSH1 0x3 NOT ADD SLT PUSH2 0xE JUMPI PUSH1 0x6 SLOAD PUSH1 0x40 MLOAD PUSH1 0x1 PUSH1 0x1 PUSH1 0xA0 SHL SUB SWAP1 SWAP2 AND DUP2 MSTORE PUSH1 0x20 SWAP1 RETURN JUMPDEST POP CALLVALUE PUSH2 0xE JUMPI PUSH1 0x0 DUP1 PUSH1 0x3 NOT CALLDATASIZE ADD SLT PUSH2 0x348 JUMPI PUSH1 0x40 MLOAD DUP2 PUSH1 0x1 DUP1 SLOAD SWAP1 PUSH2 0x9A3 DUP3 PUSH2 0x122A JUMP JUMPDEST DUP1 DUP6 MSTORE SWAP2 DUP2 DUP2 AND SWAP1 DUP2 ISZERO PUSH2 0x320 JUMPI POP PUSH1 0x1 EQ PUSH2 0x9C9 JUMPI PUSH2 0x2E1 DUP5 PUSH2 0x2D5 DUP2 DUP9 SUB DUP3 PUSH2 0x551 JUMP JUMPDEST DUP1 SWAP5 POP DUP3 MSTORE PUSH1 0x20 SWAP4 DUP5 DUP4 KECCAK256 JUMPDEST DUP3 DUP5 LT PUSH2 0x9F1 JUMPI POP POP POP DUP2 PUSH2 0x2E1 SWAP4 PUSH2 0x2D5 SWAP3 DUP3 ADD ADD SWAP4 PUSH2 0x2C5 JUMP JUMPDEST DUP1 SLOAD DUP6 DUP6 ADD DUP8 ADD MSTORE SWAP3 DUP6 ADD SWAP3 DUP2 ADD PUSH2 0x9D5 JUMP JUMPDEST POP CALLVALUE PUSH2 0xE JUMPI PUSH1 0x40 CALLDATASIZE PUSH1 0x3 NOT ADD SLT PUSH2 0xE JUMPI PUSH2 0xA1E PUSH2 0x37C JUMP JUMPDEST PUSH1 0x24 CALLDATALOAD DUP1 ISZERO ISZERO DUP2 SUB PUSH2 0xE JUMPI PUSH1 0x1 PUSH1 0x1 PUSH1 0xA0 SHL SUB DUP3 AND SWAP2 CALLER DUP4 EQ PUSH2 0xA9A JUMPI DUP2 PUSH2 0xA57 PUSH2 0xA68 SWAP3 CALLER PUSH1 0x0 MSTORE PUSH1 0x5 PUSH1 0x20 MSTORE PUSH1 0x40 PUSH1 0x0 KECCAK256 PUSH2 0x1132 JUMP JUMPDEST SWAP1 PUSH1 0xFF DUP1 NOT DUP4 SLOAD AND SWAP2 ISZERO ISZERO AND OR SWAP1 SSTORE JUMP JUMPDEST PUSH1 0x40 MLOAD SWAP1 ISZERO ISZERO DUP2 MSTORE CALLER SWAP1 PUSH32 0x17307EAB39AB6107E8899845AD3D59BD9653F200F220920489CA2B5937696C31 SWAP1 PUSH1 0x20 SWAP1 LOG3 STOP JUMPDEST PUSH1 0x40 MLOAD PUSH3 0x461BCD PUSH1 0xE5 SHL DUP2 MSTORE PUSH1 0x20 PUSH1 0x4 DUP3 ADD MSTORE PUSH1 0x19 PUSH1 0x24 DUP3 ADD MSTORE PUSH25 0x22A9219B99189D1030B8383937BB32903A379031B0B63632B9 PUSH1 0x39 SHL PUSH1 0x44 DUP3 ADD MSTORE PUSH1 0x64 SWAP1 REVERT JUMPDEST POP CALLVALUE PUSH2 0xE JUMPI PUSH1 0x80 CALLDATASIZE PUSH1 0x3 NOT ADD SLT PUSH2 0xE JUMPI PUSH2 0xAF5 PUSH2 0x37C JUMP JUMPDEST PUSH2 0xAFD PUSH2 0x3C0 JUMP JUMPDEST PUSH1 0x64 CALLDATALOAD SWAP2 PUSH1 0x1 PUSH1 0x1 PUSH1 0x40 SHL SUB DUP4 GT PUSH2 0xE JUMPI CALLDATASIZE PUSH1 0x23 DUP5 ADD SLT ISZERO PUSH2 0xE JUMPI PUSH2 0xB31 PUSH2 0x42E SWAP4 CALLDATASIZE SWAP1 PUSH1 0x24 DUP2 PUSH1 0x4 ADD CALLDATALOAD SWAP2 ADD PUSH2 0x59E JUMP JUMPDEST SWAP2 PUSH1 0x44 CALLDATALOAD SWAP2 PUSH2 0x1455 JUMP JUMPDEST POP CALLVALUE PUSH2 0xE JUMPI PUSH1 0x20 DUP1 PUSH1 0x3 NOT CALLDATASIZE ADD SLT PUSH2 0xE JUMPI PUSH1 0x4 CALLDATALOAD PUSH2 0xB5A DUP2 PUSH2 0x12D6 JUMP JUMPDEST PUSH1 0x40 SWAP2 DUP3 MLOAD DUP1 SWAP3 DUP6 DUP3 ADD PUSH2 0xB6D SWAP2 PUSH2 0x1E30 JUMP JUMPDEST SUB SWAP2 PUSH1 0x1F NOT SWAP3 DUP4 DUP2 ADD DUP3 MSTORE PUSH2 0xB82 SWAP1 DUP3 PUSH2 0x551 JUMP JUMPDEST DUP4 MLOAD SWAP2 DUP3 DUP7 DUP2 ADD PUSH2 0xBAD SWAP1 PUSH1 0x13 SWAP1 PUSH19 0x21B7B7B632B9BA103833381034B7103A37BBB7 PUSH1 0x69 SHL DUP2 MSTORE ADD SWAP1 JUMP JUMPDEST SUB DUP5 DUP2 ADD DUP5 MSTORE PUSH2 0xBBD SWAP1 DUP5 PUSH2 0x551 JUMP JUMPDEST PUSH2 0xBC5 PUSH2 0x1EB3 JUMP JUMPDEST SWAP1 PUSH2 0xBCF DUP2 PUSH2 0x20E9 JUMP JUMPDEST SWAP2 DUP7 MLOAD SWAP3 DUP4 SWAP2 DUP10 DUP4 ADD PUSH2 0xBE1 SWAP2 PUSH2 0x1F02 JUMP JUMPDEST PUSH2 0xBEA SWAP2 PUSH2 0x1F02 JUMP JUMPDEST SUB DUP6 DUP2 ADD DUP4 MSTORE PUSH2 0xBFA SWAP1 DUP4 PUSH2 0x551 JUMP JUMPDEST PUSH2 0xC03 DUP2 PUSH2 0x22BF JUMP JUMPDEST SWAP1 PUSH2 0xC0D SWAP1 PUSH2 0x1207 JUMP JUMPDEST PUSH2 0xC1F SWAP1 PUSH1 0x1 PUSH1 0x1 PUSH1 0xA0 SHL SUB AND PUSH2 0x2678 JUMP JUMPDEST SWAP1 DUP7 MLOAD SWAP5 DUP6 SWAP5 DUP10 DUP7 ADD PUSH2 0xC42 SWAP1 PUSH1 0x9 SWAP1 PUSH9 0x3D913730B6B2911D11 PUSH1 0xB9 SHL DUP2 MSTORE ADD SWAP1 JUMP JUMPDEST PUSH2 0xC4B SWAP2 PUSH2 0x1F02 JUMP JUMPDEST PUSH18 0x111610113232B9B1B934B83A34B7B7111D11 PUSH1 0x71 SHL DUP2 MSTORE PUSH1 0x12 ADD PUSH2 0xC6F SWAP2 PUSH2 0x1F02 JUMP JUMPDEST PUSH18 0x222C202261747472696275746573223A205B PUSH1 0x70 SHL DUP2 MSTORE PUSH1 0x12 ADD PUSH2 0xC93 SWAP2 PUSH2 0x1F02 JUMP JUMPDEST PUSH12 0x2E96101137BBB732B9111D11 PUSH1 0xA1 SHL DUP2 MSTORE PUSH1 0xC ADD PUSH2 0xCB1 SWAP2 PUSH2 0x1F02 JUMP JUMPDEST PUSH13 0x1116101134B6B0B3B2911D1011 PUSH1 0x99 SHL DUP2 MSTORE PUSH1 0xD ADD PUSH2 0xCD0 SWAP2 PUSH2 0x1F02 JUMP JUMPDEST PUSH2 0x227D PUSH1 0xF0 SHL DUP2 MSTORE PUSH1 0x2 ADD SUB DUP3 DUP2 ADD DUP3 MSTORE PUSH2 0xCEB SWAP1 DUP3 PUSH2 0x551 JUMP JUMPDEST PUSH2 0xCF4 SWAP1 PUSH2 0x2000 JUMP JUMPDEST DUP3 MLOAD PUSH32 0x646174613A6170706C69636174696F6E2F6A736F6E3B6261736536342C000000 SWAP5 DUP2 ADD SWAP5 DUP6 MSTORE SWAP4 DUP5 SWAP2 SWAP1 PUSH1 0x1D ADD PUSH2 0xD2D SWAP2 PUSH2 0x1F02 JUMP JUMPDEST SUB SWAP1 DUP2 ADD DUP4 MSTORE PUSH2 0xD3D SWAP1 DUP4 PUSH2 0x551 JUMP JUMPDEST MLOAD PUSH2 0x2E1 DUP2 SWAP3 DUP3 PUSH2 0x275 JUMP JUMPDEST PUSH1 0x20 SWAP1 DUP2 PUSH1 0x40 DUP2 DUP4 ADD SWAP3 DUP3 DUP2 MSTORE DUP6 MLOAD DUP1 SWAP5 MSTORE ADD SWAP4 ADD SWAP2 PUSH1 0x0 JUMPDEST DUP3 DUP2 LT PUSH2 0xD70 JUMPI POP POP POP POP SWAP1 JUMP JUMPDEST DUP4 MLOAD DUP6 MSTORE SWAP4 DUP2 ADD SWAP4 SWAP3 DUP2 ADD SWAP3 PUSH1 0x1 ADD PUSH2 0xD62 JUMP JUMPDEST POP CALLVALUE PUSH2 0xE JUMPI PUSH1 0x20 DUP1 PUSH1 0x3 NOT CALLDATASIZE ADD SLT PUSH2 0xE JUMPI PUSH2 0xD9F PUSH2 0x37C JUMP JUMPDEST PUSH2 0xDA8 DUP2 PUSH2 0x1149 JUMP JUMPDEST SWAP2 PUSH2 0xDB2 DUP4 PUSH2 0x1DC0 JUMP JUMPDEST SWAP3 PUSH2 0xDC0 PUSH1 0x40 MLOAD SWAP5 DUP6 PUSH2 0x551 JUMP JUMPDEST DUP1 DUP5 MSTORE PUSH2 0xDCF PUSH1 0x1F NOT SWAP2 PUSH2 0x1DC0 JUMP JUMPDEST ADD CALLDATASIZE DUP3 DUP6 ADD CALLDATACOPY PUSH1 0x7 SLOAD SWAP2 PUSH1 0x0 SWAP2 SWAP1 PUSH1 0x1 PUSH1 0x1 PUSH1 0xA0 SHL SUB SWAP1 DUP2 AND SWAP1 PUSH1 0x1 JUMPDEST DUP6 DUP2 GT ISZERO PUSH2 0xE02 JUMPI PUSH1 0x40 MLOAD DUP1 PUSH2 0x2E1 DUP10 DUP3 PUSH2 0xD49 JUMP JUMPDEST DUP3 DUP3 PUSH2 0xE0D DUP4 PUSH2 0x1207 JUMP JUMPDEST AND EQ PUSH2 0xE22 JUMPI JUMPDEST PUSH2 0xE1D SWAP1 PUSH2 0x1DFD JUMP JUMPDEST PUSH2 0xDEC JUMP JUMPDEST SWAP4 PUSH2 0xE43 PUSH2 0xE1D SWAP2 DUP9 MLOAD DUP2 LT ISZERO PUSH2 0xE4B JUMPI JUMPDEST DUP7 DUP7 DUP3 PUSH1 0x5 SHL DUP12 ADD ADD MSTORE PUSH2 0x1DFD JUMP JUMPDEST SWAP5 SWAP1 POP PUSH2 0xE14 JUMP JUMPDEST PUSH2 0xE53 PUSH2 0x1E19 JUMP JUMPDEST PUSH2 0xE34 JUMP JUMPDEST POP CALLVALUE PUSH2 0xE JUMPI PUSH1 0x40 CALLDATASIZE PUSH1 0x3 NOT ADD SLT PUSH2 0xE JUMPI PUSH1 0x20 PUSH1 0xFF PUSH2 0xE9E PUSH2 0xE79 PUSH2 0x37C JUMP JUMPDEST PUSH2 0xE81 PUSH2 0x3C0 JUMP JUMPDEST PUSH1 0x1 PUSH1 0x1 PUSH1 0xA0 SHL SUB SWAP1 SWAP2 AND PUSH1 0x0 SWAP1 DUP2 MSTORE PUSH1 0x5 DUP6 MSTORE PUSH1 0x40 SWAP1 KECCAK256 PUSH2 0x1132 JUMP JUMPDEST SLOAD AND PUSH1 0x40 MLOAD SWAP1 ISZERO ISZERO DUP2 MSTORE RETURN JUMPDEST POP CALLVALUE PUSH2 0xE JUMPI PUSH2 0x1A0 CALLDATASIZE PUSH1 0x3 NOT ADD SLT PUSH2 0xE JUMPI PUSH1 0x1 PUSH1 0x1 PUSH1 0x40 SHL SUB PUSH1 0x24 CALLDATALOAD DUP2 DUP2 GT PUSH2 0xE JUMPI PUSH2 0xEDE PUSH1 0x4 SWAP2 CALLDATASIZE SWAP1 DUP4 ADD PUSH2 0x5D5 JUMP JUMPDEST PUSH1 0x44 CALLDATALOAD DUP4 DUP2 GT PUSH2 0xE JUMPI PUSH2 0xEF5 SWAP1 CALLDATASIZE SWAP1 DUP5 ADD PUSH2 0x5D5 JUMP JUMPDEST PUSH1 0x64 CALLDATALOAD DUP5 DUP2 GT PUSH2 0xE JUMPI PUSH2 0xF0C SWAP1 CALLDATASIZE SWAP1 DUP6 ADD PUSH2 0x5D5 JUMP JUMPDEST PUSH1 0x84 CALLDATALOAD DUP6 DUP2 GT PUSH2 0xE JUMPI PUSH2 0xF23 SWAP1 CALLDATASIZE SWAP1 DUP7 ADD PUSH2 0x5D5 JUMP JUMPDEST PUSH1 0xA4 CALLDATALOAD DUP7 DUP2 GT PUSH2 0xE JUMPI PUSH2 0xF3A SWAP1 CALLDATASIZE SWAP1 DUP8 ADD PUSH2 0x5D5 JUMP JUMPDEST PUSH1 0xC4 CALLDATALOAD DUP8 DUP2 GT PUSH2 0xE JUMPI PUSH2 0xF51 SWAP1 CALLDATASIZE SWAP1 DUP9 ADD PUSH2 0x5D5 JUMP JUMPDEST PUSH1 0xE4 CALLDATALOAD DUP9 DUP2 GT PUSH2 0xE JUMPI PUSH2 0xF68 SWAP1 CALLDATASIZE SWAP1 DUP10 ADD PUSH2 0x5D5 JUMP JUMPDEST SWAP2 PUSH2 0x104 CALLDATALOAD DUP10 DUP2 GT PUSH2 0xE JUMPI PUSH2 0xF81 SWAP1 CALLDATASIZE SWAP1 DUP11 ADD PUSH2 0x5D5 JUMP JUMPDEST SWAP4 PUSH2 0x124 CALLDATALOAD DUP11 DUP2 GT PUSH2 0xE JUMPI PUSH2 0xF9A SWAP1 CALLDATASIZE SWAP1 DUP12 ADD PUSH2 0x5D5 JUMP JUMPDEST SWAP6 PUSH2 0x144 CALLDATALOAD DUP12 DUP2 GT PUSH2 0xE JUMPI PUSH2 0xFB3 SWAP1 CALLDATASIZE SWAP1 DUP13 ADD PUSH2 0x5D5 JUMP JUMPDEST SWAP8 PUSH2 0x164 CALLDATALOAD DUP13 DUP2 GT PUSH2 0xE JUMPI PUSH2 0xFCC SWAP1 CALLDATASIZE SWAP1 DUP14 ADD PUSH2 0x5D5 JUMP JUMPDEST SWAP10 PUSH2 0x184 CALLDATALOAD SWAP13 DUP14 GT PUSH2 0xE JUMPI PUSH2 0xFE8 DUP13 PUSH2 0x42E SWAP15 CALLDATASIZE SWAP2 ADD PUSH2 0x5D5 JUMP JUMPDEST SWAP12 CALLDATALOAD PUSH2 0x1C71 JUMP JUMPDEST POP CALLVALUE PUSH2 0xE JUMPI PUSH1 0x20 CALLDATASIZE PUSH1 0x3 NOT ADD SLT PUSH2 0xE JUMPI PUSH2 0x1009 PUSH2 0x37C JUMP JUMPDEST PUSH2 0x1011 PUSH2 0x10A1 JUMP JUMPDEST PUSH1 0x1 PUSH1 0x1 PUSH1 0xA0 SHL SUB SWAP1 DUP2 AND SWAP1 DUP2 ISZERO PUSH2 0x104D JUMPI PUSH1 0x6 DUP1 SLOAD PUSH1 0x1 PUSH1 0x1 PUSH1 0xA0 SHL SUB NOT DUP2 AND DUP5 OR SWAP1 SWAP2 SSTORE AND PUSH1 0x0 DUP1 MLOAD PUSH1 0x20 PUSH2 0x2717 DUP4 CODECOPY DUP2 MLOAD SWAP2 MSTORE PUSH1 0x0 DUP1 LOG3 STOP JUMPDEST PUSH1 0x40 MLOAD PUSH3 0x461BCD PUSH1 0xE5 SHL DUP2 MSTORE PUSH1 0x20 PUSH1 0x4 DUP3 ADD MSTORE PUSH1 0x26 PUSH1 0x24 DUP3 ADD MSTORE PUSH32 0x4F776E61626C653A206E6577206F776E657220697320746865207A65726F2061 PUSH1 0x44 DUP3 ADD MSTORE PUSH6 0x646472657373 PUSH1 0xD0 SHL PUSH1 0x64 DUP3 ADD MSTORE PUSH1 0x84 SWAP1 REVERT JUMPDEST PUSH1 0x6 SLOAD PUSH1 0x1 PUSH1 0x1 PUSH1 0xA0 SHL SUB AND CALLER SUB PUSH2 0x10B5 JUMPI JUMP JUMPDEST PUSH1 0x64 PUSH1 0x40 MLOAD PUSH3 0x461BCD PUSH1 0xE5 SHL DUP2 MSTORE PUSH1 0x20 PUSH1 0x4 DUP3 ADD MSTORE PUSH1 0x20 PUSH1 0x24 DUP3 ADD MSTORE PUSH32 0x4F776E61626C653A2063616C6C6572206973206E6F7420746865206F776E6572 PUSH1 0x44 DUP3 ADD MSTORE REVERT JUMPDEST DUP1 SLOAD PUSH1 0x1 PUSH1 0x1 PUSH1 0xA0 SHL SUB NOT AND PUSH1 0x1 PUSH1 0x1 PUSH1 0xA0 SHL SUB SWAP1 SWAP3 AND SWAP2 SWAP1 SWAP2 OR SWAP1 SSTORE JUMP JUMPDEST PUSH1 0x1 PUSH1 0x1 PUSH1 0xA0 SHL SUB AND PUSH1 0x0 SWAP1 DUP2 MSTORE PUSH1 0x3 PUSH1 0x20 MSTORE PUSH1 0x40 SWAP1 KECCAK256 SWAP1 JUMP JUMPDEST SWAP1 PUSH1 0x1 DUP1 PUSH1 0xA0 SHL SUB AND PUSH1 0x0 MSTORE PUSH1 0x20 MSTORE PUSH1 0x40 PUSH1 0x0 KECCAK256 SWAP1 JUMP JUMPDEST PUSH1 0x1 PUSH1 0x1 PUSH1 0xA0 SHL SUB AND DUP1 ISZERO PUSH2 0x1169 JUMPI PUSH1 0x0 MSTORE PUSH1 0x3 PUSH1 0x20 MSTORE PUSH1 0x40 PUSH1 0x0 KECCAK256 SLOAD SWAP1 JUMP JUMPDEST PUSH1 0x40 MLOAD PUSH3 0x461BCD PUSH1 0xE5 SHL DUP2 MSTORE PUSH1 0x20 PUSH1 0x4 DUP3 ADD MSTORE PUSH1 0x29 PUSH1 0x24 DUP3 ADD MSTORE PUSH32 0x4552433732313A2061646472657373207A65726F206973206E6F742061207661 PUSH1 0x44 DUP3 ADD MSTORE PUSH9 0x3634B21037BBB732B9 PUSH1 0xB9 SHL PUSH1 0x64 DUP3 ADD MSTORE PUSH1 0x84 SWAP1 REVERT JUMPDEST ISZERO PUSH2 0x11C7 JUMPI JUMP JUMPDEST PUSH1 0x40 MLOAD PUSH3 0x461BCD PUSH1 0xE5 SHL DUP2 MSTORE PUSH1 0x20 PUSH1 0x4 DUP3 ADD MSTORE PUSH1 0x18 PUSH1 0x24 DUP3 ADD MSTORE PUSH24 0x115490CDCC8C4E881A5B9D985B1A59081D1BDAD95B881251 PUSH1 0x42 SHL PUSH1 0x44 DUP3 ADD MSTORE PUSH1 0x64 SWAP1 REVERT JUMPDEST PUSH1 0x0 SWAP1 DUP2 MSTORE PUSH1 0x2 PUSH1 0x20 MSTORE PUSH1 0x40 SWAP1 KECCAK256 SLOAD PUSH1 0x1 PUSH1 0x1 PUSH1 0xA0 SHL SUB AND PUSH2 0x286 DUP2 ISZERO ISZERO PUSH2 0x11C0 JUMP JUMPDEST SWAP1 PUSH1 0x1 DUP3 DUP2 SHR SWAP3 AND DUP1 ISZERO PUSH2 0x125A JUMPI JUMPDEST PUSH1 0x20 DUP4 LT EQ PUSH2 0x1244 JUMPI JUMP JUMPDEST PUSH4 0x4E487B71 PUSH1 0xE0 SHL PUSH1 0x0 MSTORE PUSH1 0x22 PUSH1 0x4 MSTORE PUSH1 0x24 PUSH1 0x0 REVERT JUMPDEST SWAP2 PUSH1 0x7F AND SWAP2 PUSH2 0x1239 JUMP JUMPDEST ISZERO PUSH2 0x126B JUMPI JUMP JUMPDEST PUSH1 0x40 MLOAD PUSH3 0x461BCD PUSH1 0xE5 SHL DUP2 MSTORE PUSH1 0x20 PUSH1 0x4 DUP3 ADD MSTORE PUSH1 0x3D PUSH1 0x24 DUP3 ADD MSTORE PUSH32 0x4552433732313A20617070726F76652063616C6C6572206973206E6F7420746F PUSH1 0x44 DUP3 ADD MSTORE PUSH32 0x6B656E206F776E6572206F7220617070726F76656420666F7220616C6C000000 PUSH1 0x64 DUP3 ADD MSTORE PUSH1 0x84 SWAP1 REVERT JUMPDEST PUSH1 0x0 MSTORE PUSH1 0x8 PUSH1 0x20 MSTORE PUSH1 0x40 PUSH1 0x0 KECCAK256 SWAP1 JUMP JUMPDEST PUSH1 0x0 MSTORE PUSH1 0x9 PUSH1 0x20 MSTORE PUSH1 0x40 PUSH1 0x0 KECCAK256 SWAP1 JUMP JUMPDEST PUSH1 0x0 MSTORE PUSH1 0xA PUSH1 0x20 MSTORE PUSH1 0x40 PUSH1 0x0 KECCAK256 SWAP1 JUMP JUMPDEST PUSH1 0x0 MSTORE PUSH1 0xB PUSH1 0x20 MSTORE PUSH1 0x40 PUSH1 0x0 KECCAK256 SWAP1 JUMP JUMPDEST PUSH1 0x0 MSTORE PUSH1 0xC PUSH1 0x20 MSTORE PUSH1 0x40 PUSH1 0x0 KECCAK256 SWAP1 JUMP JUMPDEST PUSH1 0x0 MSTORE PUSH1 0xD PUSH1 0x20 MSTORE PUSH1 0x40 PUSH1 0x0 KECCAK256 SWAP1 JUMP JUMPDEST PUSH1 0x0 MSTORE PUSH1 0xE PUSH1 0x20 MSTORE PUSH1 0x40 PUSH1 0x0 KECCAK256 SWAP1 JUMP JUMPDEST PUSH1 0x0 MSTORE PUSH1 0xF PUSH1 0x20 MSTORE PUSH1 0x40 PUSH1 0x0 KECCAK256 SWAP1 JUMP JUMPDEST PUSH1 0x0 MSTORE PUSH1 0x10 PUSH1 0x20 MSTORE PUSH1 0x40 PUSH1 0x0 KECCAK256 SWAP1 JUMP JUMPDEST PUSH1 0x0 MSTORE PUSH1 0x11 PUSH1 0x20 MSTORE PUSH1 0x40 PUSH1 0x0 KECCAK256 SWAP1 JUMP JUMPDEST PUSH1 0x0 MSTORE PUSH1 0x12 PUSH1 0x20 MSTORE PUSH1 0x40 PUSH1 0x0 KECCAK256 SWAP1 JUMP JUMPDEST PUSH1 0x0 MSTORE PUSH1 0x13 PUSH1 0x20 MSTORE PUSH1 0x40 PUSH1 0x0 KECCAK256 SWAP1 JUMP JUMPDEST PUSH2 0x13A7 PUSH2 0x13A2 DUP3 PUSH2 0x1725 JUMP JUMPDEST PUSH2 0x11C0 JUMP JUMPDEST PUSH1 0x0 SWAP1 DUP2 MSTORE PUSH1 0x4 PUSH1 0x20 MSTORE PUSH1 0x40 SWAP1 KECCAK256 SLOAD PUSH1 0x1 PUSH1 0x1 PUSH1 0xA0 SHL SUB AND SWAP1 JUMP JUMPDEST ISZERO PUSH2 0x13C9 JUMPI JUMP JUMPDEST PUSH1 0x40 MLOAD PUSH3 0x461BCD PUSH1 0xE5 SHL DUP2 MSTORE PUSH1 0x20 PUSH1 0x4 DUP3 ADD MSTORE PUSH1 0x2D PUSH1 0x24 DUP3 ADD MSTORE PUSH32 0x4552433732313A2063616C6C6572206973206E6F7420746F6B656E206F776E65 PUSH1 0x44 DUP3 ADD MSTORE PUSH13 0x1C881BDC88185C1C1C9BDD9959 PUSH1 0x9A SHL PUSH1 0x64 DUP3 ADD MSTORE PUSH1 0x84 SWAP1 REVERT JUMPDEST PUSH1 0x40 MLOAD SWAP1 PUSH1 0x20 DUP3 ADD PUSH1 0x1 PUSH1 0x1 PUSH1 0x40 SHL SUB DUP2 GT DUP4 DUP3 LT OR PUSH2 0x1448 JUMPI JUMPDEST PUSH1 0x40 MSTORE PUSH1 0x0 DUP3 MSTORE JUMP JUMPDEST PUSH2 0x1450 PUSH2 0x512 JUMP JUMPDEST PUSH2 0x143F JUMP JUMPDEST SWAP1 PUSH2 0x1479 SWAP4 SWAP3 SWAP2 PUSH2 0x1469 PUSH2 0x508 DUP5 CALLER PUSH2 0x14F0 JUMP JUMPDEST PUSH2 0x1474 DUP4 DUP4 DUP4 PUSH2 0x15B8 JUMP JUMPDEST PUSH2 0x17B8 JUMP JUMPDEST ISZERO PUSH2 0x1480 JUMPI JUMP JUMPDEST PUSH1 0x40 MLOAD PUSH3 0x461BCD PUSH1 0xE5 SHL DUP2 MSTORE DUP1 PUSH2 0x1499 PUSH1 0x4 DUP3 ADD PUSH2 0x149D JUMP JUMPDEST SUB SWAP1 REVERT JUMPDEST PUSH1 0x80 SWAP1 PUSH1 0x20 DUP2 MSTORE PUSH1 0x32 PUSH1 0x20 DUP3 ADD MSTORE PUSH32 0x4552433732313A207472616E7366657220746F206E6F6E204552433732315265 PUSH1 0x40 DUP3 ADD MSTORE PUSH18 0x31B2B4BB32B91034B6B83632B6B2B73A32B9 PUSH1 0x71 SHL PUSH1 0x60 DUP3 ADD MSTORE ADD SWAP1 JUMP JUMPDEST PUSH1 0x1 PUSH1 0x1 PUSH1 0xA0 SHL SUB DUP1 PUSH2 0x1502 DUP5 PUSH2 0x1207 JUMP JUMPDEST AND SWAP3 DUP2 DUP4 AND SWAP3 DUP5 DUP5 EQ SWAP5 DUP6 ISZERO PUSH2 0x1538 JUMPI JUMPDEST POP POP DUP4 ISZERO PUSH2 0x1522 JUMPI JUMPDEST POP POP POP SWAP1 JUMP JUMPDEST PUSH2 0x152E SWAP2 SWAP3 SWAP4 POP PUSH2 0x1396 JUMP JUMPDEST AND EQ CODESIZE DUP1 DUP1 PUSH2 0x151C JUMP JUMPDEST PUSH1 0xFF SWAP3 SWAP6 POP SWAP1 PUSH2 0x1554 SWAP2 PUSH1 0x0 MSTORE PUSH1 0x5 PUSH1 0x20 MSTORE PUSH1 0x40 PUSH1 0x0 KECCAK256 PUSH2 0x1132 JUMP JUMPDEST SLOAD AND SWAP3 CODESIZE DUP1 PUSH2 0x1513 JUMP JUMPDEST ISZERO PUSH2 0x1565 JUMPI JUMP JUMPDEST PUSH1 0x40 MLOAD PUSH3 0x461BCD PUSH1 0xE5 SHL DUP2 MSTORE PUSH1 0x20 PUSH1 0x4 DUP3 ADD MSTORE PUSH1 0x25 PUSH1 0x24 DUP3 ADD MSTORE PUSH32 0x4552433732313A207472616E736665722066726F6D20696E636F727265637420 PUSH1 0x44 DUP3 ADD MSTORE PUSH5 0x37BBB732B9 PUSH1 0xD9 SHL PUSH1 0x64 DUP3 ADD MSTORE PUSH1 0x84 SWAP1 REVERT JUMPDEST PUSH2 0x15DC SWAP1 PUSH2 0x15C5 DUP5 PUSH2 0x1207 JUMP JUMPDEST PUSH1 0x1 PUSH1 0x1 PUSH1 0xA0 SHL SUB DUP3 DUP2 AND SWAP4 SWAP1 SWAP2 DUP3 AND DUP5 EQ PUSH2 0x155E JUMP JUMPDEST DUP4 AND SWAP3 DUP4 ISZERO PUSH2 0x1680 JUMPI PUSH2 0x163A PUSH2 0x166B SWAP3 PUSH2 0x160E DUP6 PUSH2 0x1608 PUSH2 0x15FC DUP11 PUSH2 0x1207 JUMP JUMPDEST PUSH1 0x1 PUSH1 0x1 PUSH1 0xA0 SHL SUB AND SWAP1 JUMP JUMPDEST EQ PUSH2 0x155E JUMP JUMPDEST PUSH2 0x1635 PUSH2 0x1625 DUP9 PUSH1 0x0 MSTORE PUSH1 0x4 PUSH1 0x20 MSTORE PUSH1 0x40 PUSH1 0x0 KECCAK256 SWAP1 JUMP JUMPDEST DUP1 SLOAD PUSH1 0x1 PUSH1 0x1 PUSH1 0xA0 SHL SUB NOT AND SWAP1 SSTORE JUMP JUMPDEST PUSH2 0x1118 JUMP JUMPDEST DUP1 SLOAD PUSH1 0x0 NOT ADD SWAP1 SSTORE PUSH2 0x164B DUP2 PUSH2 0x1118 JUMP JUMPDEST PUSH1 0x1 DUP2 SLOAD ADD SWAP1 SSTORE PUSH2 0x1666 DUP6 PUSH1 0x0 MSTORE PUSH1 0x2 PUSH1 0x20 MSTORE PUSH1 0x40 PUSH1 0x0 KECCAK256 SWAP1 JUMP JUMPDEST PUSH2 0x10F9 JUMP JUMPDEST PUSH1 0x0 DUP1 MLOAD PUSH1 0x20 PUSH2 0x2737 DUP4 CODECOPY DUP2 MLOAD SWAP2 MSTORE PUSH1 0x0 DUP1 LOG4 JUMP JUMPDEST PUSH1 0x40 MLOAD PUSH3 0x461BCD PUSH1 0xE5 SHL DUP2 MSTORE PUSH1 0x20 PUSH1 0x4 DUP3 ADD MSTORE PUSH1 0x24 DUP1 DUP3 ADD MSTORE PUSH32 0x4552433732313A207472616E7366657220746F20746865207A65726F20616464 PUSH1 0x44 DUP3 ADD MSTORE PUSH4 0x72657373 PUSH1 0xE0 SHL PUSH1 0x64 DUP3 ADD MSTORE PUSH1 0x84 SWAP1 REVERT JUMPDEST DUP2 PUSH1 0x0 MSTORE PUSH1 0x4 PUSH1 0x20 MSTORE PUSH2 0x16E8 DUP2 PUSH1 0x40 PUSH1 0x0 KECCAK256 PUSH2 0x10F9 JUMP JUMPDEST PUSH1 0x1 PUSH1 0x1 PUSH1 0xA0 SHL SUB DUP1 PUSH2 0x16FA DUP5 PUSH2 0x1207 JUMP JUMPDEST AND SWAP2 AND SWAP1 PUSH32 0x8C5BE1E5EBEC7D5BD14F71427D1E84F3DD0314C0F7B2291E5B200AC8C7C3B925 PUSH1 0x0 DUP1 LOG4 JUMP JUMPDEST PUSH1 0x0 SWAP1 DUP2 MSTORE PUSH1 0x2 PUSH1 0x20 MSTORE PUSH1 0x40 SWAP1 KECCAK256 SLOAD PUSH1 0x1 PUSH1 0x1 PUSH1 0xA0 SHL SUB AND ISZERO ISZERO SWAP1 JUMP JUMPDEST SWAP1 DUP2 PUSH1 0x20 SWAP2 SUB SLT PUSH2 0xE JUMPI MLOAD PUSH2 0x286 DUP2 PUSH2 0x1AC JUMP JUMPDEST PUSH1 0x1 PUSH1 0x1 PUSH1 0xA0 SHL SUB SWAP2 DUP3 AND DUP2 MSTORE SWAP2 AND PUSH1 0x20 DUP3 ADD MSTORE PUSH1 0x40 DUP2 ADD SWAP2 SWAP1 SWAP2 MSTORE PUSH1 0x80 PUSH1 0x60 DUP3 ADD DUP2 SWAP1 MSTORE PUSH2 0x286 SWAP3 SWAP2 ADD SWAP1 PUSH2 0x250 JUMP JUMPDEST RETURNDATASIZE ISZERO PUSH2 0x17B3 JUMPI RETURNDATASIZE SWAP1 PUSH2 0x1799 DUP3 PUSH2 0x574 JUMP JUMPDEST SWAP2 PUSH2 0x17A7 PUSH1 0x40 MLOAD SWAP4 DUP5 PUSH2 0x551 JUMP JUMPDEST DUP3 MSTORE RETURNDATASIZE PUSH1 0x0 PUSH1 0x20 DUP5 ADD RETURNDATACOPY JUMP JUMPDEST PUSH1 0x60 SWAP1 JUMP JUMPDEST SWAP3 SWAP1 SWAP2 SWAP1 DUP3 EXTCODESIZE ISZERO PUSH2 0x1872 JUMPI PUSH2 0x17EB SWAP3 PUSH1 0x20 SWAP3 PUSH1 0x0 PUSH1 0x40 MLOAD DUP1 SWAP7 DUP2 SWAP6 DUP3 SWAP5 PUSH4 0xA85BD01 PUSH1 0xE1 SHL SWAP11 DUP12 DUP6 MSTORE CALLER PUSH1 0x4 DUP7 ADD PUSH2 0x1757 JUMP JUMPDEST SUB SWAP3 PUSH1 0x1 PUSH1 0x1 PUSH1 0xA0 SHL SUB AND GAS CALL PUSH1 0x0 SWAP2 DUP2 PUSH2 0x1842 JUMPI JUMPDEST POP PUSH2 0x1834 JUMPI PUSH2 0x180E PUSH2 0x1788 JUMP JUMPDEST DUP1 MLOAD SWAP1 DUP2 PUSH2 0x182F JUMPI PUSH1 0x40 MLOAD PUSH3 0x461BCD PUSH1 0xE5 SHL DUP2 MSTORE DUP1 PUSH2 0x1499 PUSH1 0x4 DUP3 ADD PUSH2 0x149D JUMP JUMPDEST PUSH1 0x20 ADD REVERT JUMPDEST PUSH1 0x1 PUSH1 0x1 PUSH1 0xE0 SHL SUB NOT AND EQ SWAP1 JUMP JUMPDEST PUSH2 0x1864 SWAP2 SWAP3 POP PUSH1 0x20 RETURNDATASIZE DUP2 GT PUSH2 0x186B JUMPI JUMPDEST PUSH2 0x185C DUP2 DUP4 PUSH2 0x551 JUMP JUMPDEST DUP2 ADD SWAP1 PUSH2 0x1742 JUMP JUMPDEST SWAP1 CODESIZE PUSH2 0x1801 JUMP JUMPDEST POP RETURNDATASIZE PUSH2 0x1852 JUMP JUMPDEST POP POP POP POP PUSH1 0x1 SWAP1 JUMP JUMPDEST SWAP14 SWAP11 SWAP9 SWAP7 SWAP5 SWAP3 SWAP1 SWAP13 SWAP10 SWAP8 SWAP6 SWAP4 SWAP2 PUSH1 0x40 MLOAD SWAP15 DUP16 SWAP15 DUP16 SWAP2 PUSH2 0x1E0 DUP1 DUP5 MSTORE DUP4 ADD PUSH2 0x18A1 SWAP2 PUSH2 0x250 JUMP JUMPDEST DUP3 DUP2 SUB PUSH1 0x20 DUP5 ADD MSTORE PUSH2 0x18B2 SWAP2 PUSH2 0x250 JUMP JUMPDEST SWAP1 DUP1 DUP3 SUB SWAP1 PUSH1 0x40 ADD MSTORE PUSH2 0x18C4 SWAP2 PUSH2 0x250 JUMP JUMPDEST DUP14 DUP2 SUB PUSH1 0x60 DUP16 ADD MSTORE PUSH2 0x18D5 SWAP2 PUSH2 0x250 JUMP JUMPDEST DUP13 DUP2 SUB PUSH1 0x80 DUP15 ADD MSTORE PUSH2 0x18E6 SWAP2 PUSH2 0x250 JUMP JUMPDEST DUP12 DUP2 SUB PUSH1 0xA0 DUP14 ADD MSTORE PUSH2 0x18F7 SWAP2 PUSH2 0x250 JUMP JUMPDEST DUP11 DUP2 SUB PUSH1 0xC0 DUP13 ADD MSTORE PUSH2 0x1908 SWAP2 PUSH2 0x250 JUMP JUMPDEST DUP10 DUP2 SUB PUSH1 0xE0 DUP12 ADD MSTORE PUSH2 0x1919 SWAP2 PUSH2 0x250 JUMP JUMPDEST DUP9 DUP2 SUB PUSH2 0x100 DUP11 ADD MSTORE PUSH2 0x192B SWAP2 PUSH2 0x250 JUMP JUMPDEST DUP8 DUP2 SUB PUSH2 0x120 DUP10 ADD MSTORE PUSH2 0x193D SWAP2 PUSH2 0x250 JUMP JUMPDEST DUP7 DUP2 SUB PUSH2 0x140 DUP9 ADD MSTORE PUSH2 0x194F SWAP2 PUSH2 0x250 JUMP JUMPDEST DUP6 DUP2 SUB PUSH2 0x160 DUP8 ADD MSTORE PUSH2 0x1961 SWAP2 PUSH2 0x250 JUMP JUMPDEST PUSH2 0x180 DUP6 ADD SWAP4 SWAP1 SWAP4 MSTORE PUSH2 0x1A0 DUP5 ADD MSTORE PUSH1 0x1 PUSH1 0x1 PUSH1 0xA0 SHL SUB AND PUSH2 0x1C0 DUP4 ADD MSTORE SUB PUSH32 0xEC6F5ABB6D06F755FE8458400DB290A6D243E9739E9DF87D230B155081D9A213 SWAP2 LOG1 JUMP JUMPDEST SWAP1 PUSH1 0x1F DUP2 GT PUSH2 0x19B3 JUMPI POP POP POP JUMP JUMPDEST PUSH1 0x0 SWAP2 DUP3 MSTORE PUSH1 0x20 DUP3 KECCAK256 SWAP1 PUSH1 0x20 PUSH1 0x1F DUP6 ADD PUSH1 0x5 SHR DUP4 ADD SWAP5 LT PUSH2 0x19EF JUMPI JUMPDEST PUSH1 0x1F ADD PUSH1 0x5 SHR ADD SWAP2 JUMPDEST DUP3 DUP2 LT PUSH2 0x19E4 JUMPI POP POP POP JUMP JUMPDEST DUP2 DUP2 SSTORE PUSH1 0x1 ADD PUSH2 0x19D8 JUMP JUMPDEST SWAP1 SWAP3 POP DUP3 SWAP1 PUSH2 0x19CF JUMP JUMPDEST DUP2 MLOAD SWAP2 SWAP3 SWAP2 PUSH1 0x1 PUSH1 0x1 PUSH1 0x40 SHL SUB DUP2 GT PUSH2 0x1AC8 JUMPI JUMPDEST PUSH2 0x1A21 DUP2 PUSH2 0x1A1B DUP5 SLOAD PUSH2 0x122A JUMP JUMPDEST DUP5 PUSH2 0x19A5 JUMP JUMPDEST PUSH1 0x20 DUP1 PUSH1 0x1F DUP4 GT PUSH1 0x1 EQ PUSH2 0x1A5D JUMPI POP DUP2 SWAP3 SWAP4 SWAP5 PUSH1 0x0 SWAP3 PUSH2 0x1A52 JUMPI JUMPDEST POP POP DUP2 PUSH1 0x1 SHL SWAP2 PUSH1 0x0 NOT SWAP1 PUSH1 0x3 SHL SHR NOT AND OR SWAP1 SSTORE JUMP JUMPDEST ADD MLOAD SWAP1 POP CODESIZE DUP1 PUSH2 0x1A3C JUMP JUMPDEST SWAP1 PUSH1 0x1F NOT DUP4 AND SWAP6 PUSH2 0x1A73 DUP6 PUSH1 0x0 MSTORE PUSH1 0x20 PUSH1 0x0 KECCAK256 SWAP1 JUMP JUMPDEST SWAP3 PUSH1 0x0 SWAP1 JUMPDEST DUP9 DUP3 LT PUSH2 0x1AB0 JUMPI POP POP DUP4 PUSH1 0x1 SWAP6 SWAP7 SWAP8 LT PUSH2 0x1A97 JUMPI JUMPDEST POP POP POP DUP2 SHL ADD SWAP1 SSTORE JUMP JUMPDEST ADD MLOAD PUSH1 0x0 NOT PUSH1 0xF8 DUP5 PUSH1 0x3 SHL AND SHR NOT AND SWAP1 SSTORE CODESIZE DUP1 DUP1 PUSH2 0x1A8D JUMP JUMPDEST DUP1 PUSH1 0x1 DUP6 SWAP7 DUP3 SWAP5 SWAP7 DUP7 ADD MLOAD DUP2 SSTORE ADD SWAP6 ADD SWAP4 ADD SWAP1 PUSH2 0x1A78 JUMP JUMPDEST PUSH2 0x1AD0 PUSH2 0x512 JUMP JUMPDEST PUSH2 0x1A0D JUMP JUMPDEST SWAP3 SWAP7 SWAP4 SWAP5 SWAP9 SWAP8 SWAP6 SWAP2 SWAP1 SWAP9 PUSH1 0x1 PUSH1 0x7 SLOAD ADD SWAP11 DUP12 PUSH1 0x7 SSTORE PUSH1 0x1 DUP1 PUSH1 0xA0 SHL SUB DUP2 AND SWAP7 DUP8 ISZERO PUSH2 0x1BE2 JUMPI PUSH2 0x1BAC PUSH2 0x1BD9 SWAP11 PUSH2 0x1B90 DUP16 PUSH2 0x286 SWAP16 PUSH2 0x1BBE SWAP9 PUSH2 0x1B9E PUSH2 0x1BA7 SWAP3 PUSH2 0x1BD0 SWAP16 PUSH2 0x1BC7 SWAP15 DUP7 PUSH2 0x1B95 SWAP3 PUSH2 0x1B73 PUSH2 0x1BB5 SWAP15 PUSH2 0x1B40 PUSH2 0x1B3B PUSH2 0x1B37 DUP7 PUSH2 0x1725 JUMP JUMPDEST ISZERO SWAP1 JUMP JUMPDEST PUSH2 0x1C26 JUMP JUMPDEST PUSH2 0x1B4F PUSH2 0x1B3B PUSH2 0x1B37 DUP7 PUSH2 0x1725 JUMP JUMPDEST PUSH2 0x1B58 DUP2 PUSH2 0x1118 JUMP JUMPDEST PUSH1 0x1 DUP2 SLOAD ADD SWAP1 SSTORE PUSH2 0x1666 DUP5 PUSH1 0x0 MSTORE PUSH1 0x2 PUSH1 0x20 MSTORE PUSH1 0x40 PUSH1 0x0 KECCAK256 SWAP1 JUMP JUMPDEST PUSH1 0x0 PUSH1 0x0 DUP1 MLOAD PUSH1 0x20 PUSH2 0x2737 DUP4 CODECOPY DUP2 MLOAD SWAP2 MSTORE DUP2 DUP1 LOG4 PUSH2 0x1B90 DUP8 PUSH2 0x12D6 JUMP JUMPDEST PUSH2 0x19F9 JUMP JUMPDEST PUSH2 0x1B90 DUP6 PUSH2 0x12E6 JUMP JUMPDEST PUSH2 0x1B90 DUP4 PUSH2 0x12F6 JUMP JUMPDEST PUSH2 0x1306 JUMP JUMPDEST PUSH2 0x1B90 DUP14 PUSH2 0x1316 JUMP JUMPDEST PUSH2 0x1B90 DUP12 PUSH2 0x1326 JUMP JUMPDEST PUSH2 0x1B90 DUP10 PUSH2 0x1336 JUMP JUMPDEST PUSH2 0x1B90 DUP8 PUSH2 0x1346 JUMP JUMPDEST PUSH2 0x1B90 DUP6 PUSH2 0x1356 JUMP JUMPDEST PUSH2 0x1B90 DUP4 PUSH2 0x1366 JUMP JUMPDEST PUSH1 0x64 PUSH1 0x40 MLOAD PUSH3 0x461BCD PUSH1 0xE5 SHL DUP2 MSTORE PUSH1 0x20 PUSH1 0x4 DUP3 ADD MSTORE PUSH1 0x20 PUSH1 0x24 DUP3 ADD MSTORE PUSH32 0x4552433732313A206D696E7420746F20746865207A65726F2061646472657373 PUSH1 0x44 DUP3 ADD MSTORE REVERT JUMPDEST ISZERO PUSH2 0x1C2D JUMPI JUMP JUMPDEST PUSH1 0x40 MLOAD PUSH3 0x461BCD PUSH1 0xE5 SHL DUP2 MSTORE PUSH1 0x20 PUSH1 0x4 DUP3 ADD MSTORE PUSH1 0x1C PUSH1 0x24 DUP3 ADD MSTORE PUSH28 0x115490CDCC8C4E881D1BDAD95B88185B1C9958591E481B5A5B9D1959 PUSH1 0x22 SHL PUSH1 0x44 DUP3 ADD MSTORE PUSH1 0x64 SWAP1 REVERT JUMPDEST DUP1 SWAP13 SWAP12 SWAP11 SWAP10 SWAP9 SWAP8 SWAP7 SWAP6 SWAP5 SWAP4 SWAP3 SWAP2 DUP1 MLOAD PUSH2 0x1DAD JUMPI JUMPDEST POP POP DUP1 MLOAD PUSH2 0x1D9A JUMPI JUMPDEST POP DUP1 MLOAD PUSH2 0x1D87 JUMPI JUMPDEST POP DUP1 MLOAD PUSH2 0x1D74 JUMPI JUMPDEST POP DUP1 MLOAD PUSH2 0x1D61 JUMPI JUMPDEST POP DUP1 MLOAD PUSH2 0x1D4E JUMPI JUMPDEST POP DUP1 MLOAD PUSH2 0x1D3B JUMPI JUMPDEST POP DUP1 MLOAD PUSH2 0x1D28 JUMPI JUMPDEST POP DUP1 MLOAD PUSH2 0x1D15 JUMPI JUMPDEST POP DUP1 MLOAD PUSH2 0x1D02 JUMPI JUMPDEST POP DUP1 MLOAD PUSH2 0x1CEF JUMPI JUMPDEST POP DUP1 MLOAD PUSH2 0x1CE1 JUMPI POP POP JUMP JUMPDEST PUSH2 0x1B90 PUSH2 0x1CED SWAP3 PUSH2 0x1386 JUMP JUMPDEST JUMP JUMPDEST PUSH2 0x1CFC SWAP1 PUSH2 0x1B90 DUP5 PUSH2 0x1376 JUMP JUMPDEST CODESIZE PUSH2 0x1CD6 JUMP JUMPDEST PUSH2 0x1D0F SWAP1 PUSH2 0x1B90 DUP6 PUSH2 0x1366 JUMP JUMPDEST CODESIZE PUSH2 0x1CCE JUMP JUMPDEST PUSH2 0x1D22 SWAP1 PUSH2 0x1B90 DUP7 PUSH2 0x1356 JUMP JUMPDEST CODESIZE PUSH2 0x1CC6 JUMP JUMPDEST PUSH2 0x1D35 SWAP1 PUSH2 0x1B90 DUP8 PUSH2 0x1346 JUMP JUMPDEST CODESIZE PUSH2 0x1CBE JUMP JUMPDEST PUSH2 0x1D48 SWAP1 PUSH2 0x1B90 DUP9 PUSH2 0x1336 JUMP JUMPDEST CODESIZE PUSH2 0x1CB6 JUMP JUMPDEST PUSH2 0x1D5B SWAP1 PUSH2 0x1B90 DUP10 PUSH2 0x1326 JUMP JUMPDEST CODESIZE PUSH2 0x1CAE JUMP JUMPDEST PUSH2 0x1D6E SWAP1 PUSH2 0x1B90 DUP11 PUSH2 0x1316 JUMP JUMPDEST CODESIZE PUSH2 0x1CA6 JUMP JUMPDEST PUSH2 0x1D81 SWAP1 PUSH2 0x1B90 DUP12 PUSH2 0x1306 JUMP JUMPDEST CODESIZE PUSH2 0x1C9E JUMP JUMPDEST PUSH2 0x1D94 SWAP1 PUSH2 0x1B90 DUP13 PUSH2 0x12F6 JUMP JUMPDEST CODESIZE PUSH2 0x1C96 JUMP JUMPDEST PUSH2 0x1DA7 SWAP1 PUSH2 0x1B90 DUP14 PUSH2 0x12E6 JUMP JUMPDEST CODESIZE PUSH2 0x1C8E JUMP JUMPDEST PUSH2 0x1B90 PUSH2 0x1DB9 SWAP3 PUSH2 0x12D6 JUMP JUMPDEST DUP12 CODESIZE PUSH2 0x1C85 JUMP JUMPDEST PUSH1 0x20 SWAP1 PUSH1 0x1 PUSH1 0x1 PUSH1 0x40 SHL SUB DUP2 GT PUSH2 0x1DD9 JUMPI JUMPDEST PUSH1 0x5 SHL ADD SWAP1 JUMP JUMPDEST PUSH2 0x1DE1 PUSH2 0x512 JUMP JUMPDEST PUSH2 0x1DD2 JUMP JUMPDEST POP PUSH4 0x4E487B71 PUSH1 0xE0 SHL PUSH1 0x0 MSTORE PUSH1 0x11 PUSH1 0x4 MSTORE PUSH1 0x24 PUSH1 0x0 REVERT JUMPDEST PUSH1 0x1 SWAP1 PUSH1 0x0 NOT DUP2 EQ PUSH2 0x1E0D JUMPI ADD SWAP1 JUMP JUMPDEST PUSH2 0x1E15 PUSH2 0x1DE6 JUMP JUMPDEST ADD SWAP1 JUMP JUMPDEST POP PUSH4 0x4E487B71 PUSH1 0xE0 SHL PUSH1 0x0 MSTORE PUSH1 0x32 PUSH1 0x4 MSTORE PUSH1 0x24 PUSH1 0x0 REVERT JUMPDEST PUSH1 0x0 SWAP3 SWAP2 DUP2 SLOAD PUSH2 0x1E3F DUP2 PUSH2 0x122A JUMP JUMPDEST SWAP3 PUSH1 0x1 SWAP2 DUP1 DUP4 AND SWAP1 DUP2 ISZERO PUSH2 0x1E98 JUMPI POP PUSH1 0x1 EQ PUSH2 0x1E5C JUMPI JUMPDEST POP POP POP POP JUMP JUMPDEST SWAP1 SWAP2 SWAP3 SWAP4 SWAP5 POP PUSH1 0x0 MSTORE PUSH1 0x20 SWAP1 DUP2 PUSH1 0x0 KECCAK256 SWAP1 PUSH1 0x0 SWAP2 JUMPDEST DUP6 DUP4 LT PUSH2 0x1E87 JUMPI POP POP POP POP ADD SWAP1 CODESIZE DUP1 DUP1 DUP1 PUSH2 0x1E56 JUMP JUMPDEST DUP1 SLOAD DUP6 DUP5 ADD MSTORE SWAP2 DUP4 ADD SWAP2 DUP2 ADD PUSH2 0x1E71 JUMP JUMPDEST PUSH1 0xFF NOT AND DUP5 MSTORE POP POP POP DUP2 ISZERO ISZERO SWAP1 SWAP2 MUL ADD SWAP2 POP CODESIZE DUP1 DUP1 DUP1 PUSH2 0x1E56 JUMP JUMPDEST PUSH1 0x40 DUP1 MLOAD SWAP2 SWAP1 DUP3 ADD PUSH1 0x1 PUSH1 0x1 PUSH1 0x40 SHL SUB DUP2 GT DUP4 DUP3 LT OR PUSH2 0x1EF5 JUMPI JUMPDEST PUSH1 0x40 MSTORE PUSH1 0x15 DUP3 MSTORE PUSH21 0x68747470733A2F2F6176617461616172732E696F2F PUSH1 0x58 SHL PUSH1 0x20 DUP4 ADD MSTORE JUMP JUMPDEST PUSH2 0x1EFD PUSH2 0x512 JUMP JUMPDEST PUSH2 0x1ECE JUMP JUMPDEST SWAP1 PUSH2 0x1E15 PUSH1 0x20 SWAP3 DUP3 DUP2 MLOAD SWAP5 DUP6 SWAP3 ADD PUSH2 0x22D JUMP JUMPDEST PUSH1 0x40 MLOAD SWAP1 PUSH1 0x60 DUP3 ADD PUSH1 0x1 PUSH1 0x1 PUSH1 0x40 SHL SUB DUP2 GT DUP4 DUP3 LT OR PUSH2 0x1F85 JUMPI JUMPDEST PUSH1 0x40 MSTORE PUSH1 0x40 DUP3 MSTORE PUSH32 0x6768696A6B6C6D6E6F707172737475767778797A303132333435363738392B2F PUSH1 0x40 DUP4 PUSH32 0x4142434445464748494A4B4C4D4E4F505152535455565758595A616263646566 PUSH1 0x20 DUP3 ADD MSTORE ADD MSTORE JUMP JUMPDEST PUSH2 0x1F8D PUSH2 0x512 JUMP JUMPDEST PUSH2 0x1F30 JUMP JUMPDEST SWAP1 PUSH1 0x2 DUP3 ADD DUP1 SWAP3 GT PUSH2 0x1FA0 JUMPI JUMP JUMPDEST PUSH2 0x1CED PUSH2 0x1DE6 JUMP JUMPDEST SWAP1 PUSH1 0x20 DUP3 ADD DUP1 SWAP3 GT PUSH2 0x1FA0 JUMPI JUMP JUMPDEST PUSH1 0x2 DUP2 SWAP1 SHL SWAP2 SWAP1 PUSH1 0x1 PUSH1 0x1 PUSH1 0xFE SHL SUB DUP2 AND SUB PUSH2 0x1FA0 JUMPI JUMP JUMPDEST SWAP1 PUSH2 0x1FD8 DUP3 PUSH2 0x574 JUMP JUMPDEST PUSH2 0x1FE5 PUSH1 0x40 MLOAD SWAP2 DUP3 PUSH2 0x551 JUMP JUMPDEST DUP3 DUP2 MSTORE DUP1 SWAP3 PUSH2 0x1FF6 PUSH1 0x1F NOT SWAP2 PUSH2 0x574 JUMP JUMPDEST ADD SWAP1 PUSH1 0x20 CALLDATASIZE SWAP2 ADD CALLDATACOPY JUMP JUMPDEST DUP1 MLOAD ISZERO PUSH2 0x20E0 JUMPI PUSH2 0x200F PUSH2 0x1F15 JUMP JUMPDEST PUSH2 0x202B PUSH2 0x2026 PUSH2 0x201F DUP5 MLOAD PUSH2 0x1F92 JUMP JUMPDEST PUSH1 0x3 SWAP1 DIV SWAP1 JUMP JUMPDEST PUSH2 0x1FB6 JUMP JUMPDEST SWAP2 PUSH2 0x203D PUSH2 0x2038 DUP5 PUSH2 0x1FA8 JUMP JUMPDEST PUSH2 0x1FCE JUMP JUMPDEST SWAP3 DUP4 MSTORE DUP1 DUP2 MLOAD DUP3 ADD SWAP1 PUSH1 0x20 DUP6 ADD SWAP4 JUMPDEST DUP3 DUP3 LT PUSH2 0x208E JUMPI POP POP POP PUSH1 0x3 SWAP1 MLOAD MOD DUP1 PUSH1 0x1 EQ PUSH2 0x207D JUMPI PUSH1 0x2 EQ PUSH2 0x206E JUMPI POP SWAP1 JUMP JUMPDEST PUSH1 0x3D PUSH1 0xF8 SHL PUSH1 0x0 NOT SWAP1 SWAP2 ADD MSTORE SWAP1 JUMP JUMPDEST POP PUSH2 0x3D3D PUSH1 0xF0 SHL PUSH1 0x1 NOT SWAP1 SWAP2 ADD MSTORE SWAP1 JUMP JUMPDEST SWAP1 SWAP2 SWAP4 PUSH1 0x4 SWAP1 PUSH1 0x3 DUP1 SWAP5 ADD SWAP4 DUP5 MLOAD PUSH1 0x1 SWAP1 PUSH1 0x3F SWAP1 DUP3 DUP3 DUP3 PUSH1 0x12 SHR AND DUP9 ADD ADD MLOAD DUP6 MSTORE8 DUP3 DUP3 DUP3 PUSH1 0xC SHR AND DUP9 ADD ADD MLOAD DUP4 DUP7 ADD MSTORE8 DUP3 DUP3 DUP3 PUSH1 0x6 SHR AND DUP9 ADD ADD MLOAD PUSH1 0x2 DUP7 ADD MSTORE8 AND DUP6 ADD ADD MLOAD SWAP1 DUP3 ADD MSTORE8 ADD SWAP4 SWAP2 SWAP1 PUSH2 0x204C JUMP JUMPDEST POP PUSH2 0x286 PUSH2 0x1424 JUMP JUMPDEST PUSH2 0x20F2 DUP2 PUSH2 0x12E6 JUMP JUMPDEST PUSH2 0x20FB DUP3 PUSH2 0x12F6 JUMP JUMPDEST SWAP2 PUSH2 0x2105 DUP2 PUSH2 0x1306 JUMP JUMPDEST SWAP1 PUSH2 0x210F DUP2 PUSH2 0x1316 JUMP JUMPDEST PUSH2 0x2118 DUP3 PUSH2 0x1326 JUMP JUMPDEST PUSH2 0x2121 DUP4 PUSH2 0x1336 JUMP JUMPDEST PUSH2 0x212A DUP5 PUSH2 0x1346 JUMP JUMPDEST SWAP1 PUSH2 0x2134 DUP6 PUSH2 0x1356 JUMP JUMPDEST SWAP3 PUSH2 0x213E DUP7 PUSH2 0x1366 JUMP JUMPDEST SWAP5 PUSH2 0x2148 DUP8 PUSH2 0x1376 JUMP JUMPDEST SWAP7 PUSH2 0x2152 SWAP1 PUSH2 0x1386 JUMP JUMPDEST SWAP8 PUSH1 0x40 MLOAD SWAP11 DUP12 SWAP11 PUSH1 0x20 DUP13 ADD PUSH13 0x3F6176617461725374796C653D PUSH1 0x98 SHL SWAP1 MSTORE PUSH1 0x2D DUP13 ADD PUSH2 0x217D SWAP2 PUSH2 0x1E30 JUMP JUMPDEST PUSH9 0x26746F70547970653D PUSH1 0xB8 SHL DUP2 MSTORE PUSH1 0x9 ADD PUSH2 0x2198 SWAP2 PUSH2 0x1E30 JUMP JUMPDEST PUSH11 0x2668616972436F6C6F723D PUSH1 0xA8 SHL DUP2 MSTORE PUSH1 0xB ADD PUSH2 0x21B5 SWAP2 PUSH2 0x1E30 JUMP JUMPDEST PUSH13 0x2665796562726F77547970653D PUSH1 0x98 SHL DUP2 MSTORE PUSH1 0xD ADD PUSH2 0x21D4 SWAP2 PUSH2 0x1E30 JUMP JUMPDEST PUSH9 0x26657965547970653D PUSH1 0xB8 SHL DUP2 MSTORE PUSH1 0x9 ADD PUSH2 0x21EF SWAP2 PUSH2 0x1E30 JUMP JUMPDEST PUSH17 0x266163636573736F72696573547970653D PUSH1 0x78 SHL DUP2 MSTORE PUSH1 0x11 ADD PUSH2 0x2212 SWAP2 PUSH2 0x1E30 JUMP JUMPDEST PUSH11 0x266D6F757468547970653D PUSH1 0xA8 SHL DUP2 MSTORE PUSH1 0xB ADD PUSH2 0x222F SWAP2 PUSH2 0x1E30 JUMP JUMPDEST PUSH16 0x2666616369616C48616972547970653D PUSH1 0x80 SHL DUP2 MSTORE PUSH1 0x10 ADD PUSH2 0x2251 SWAP2 PUSH2 0x1E30 JUMP JUMPDEST PUSH12 0x26636C6F746865547970653D PUSH1 0xA0 SHL DUP2 MSTORE PUSH1 0xC ADD PUSH2 0x226F SWAP2 PUSH2 0x1E30 JUMP JUMPDEST PUSH13 0x26636C6F746865436F6C6F723D PUSH1 0x98 SHL DUP2 MSTORE PUSH1 0xD ADD PUSH2 0x228E SWAP2 PUSH2 0x1E30 JUMP JUMPDEST PUSH13 0x2667726170686963547970653D PUSH1 0x98 SHL DUP2 MSTORE PUSH1 0xD ADD PUSH2 0x22AD SWAP2 PUSH2 0x1E30 JUMP JUMPDEST SUB PUSH1 0x1F NOT DUP2 ADD DUP3 MSTORE PUSH2 0x286 SWAP1 DUP3 PUSH2 0x551 JUMP JUMPDEST PUSH2 0x22C8 DUP2 PUSH2 0x12E6 JUMP JUMPDEST PUSH2 0x22D1 DUP3 PUSH2 0x12F6 JUMP JUMPDEST SWAP2 PUSH2 0x22DB DUP2 PUSH2 0x1306 JUMP JUMPDEST SWAP1 PUSH2 0x22E5 DUP2 PUSH2 0x1316 JUMP JUMPDEST PUSH2 0x22EE DUP3 PUSH2 0x1326 JUMP JUMPDEST PUSH2 0x22F7 DUP4 PUSH2 0x1336 JUMP JUMPDEST PUSH2 0x2300 DUP5 PUSH2 0x1346 JUMP JUMPDEST SWAP1 PUSH2 0x230A DUP6 PUSH2 0x1356 JUMP JUMPDEST SWAP3 PUSH2 0x2314 DUP7 PUSH2 0x1366 JUMP JUMPDEST SWAP5 PUSH2 0x231E DUP8 PUSH2 0x1376 JUMP JUMPDEST SWAP7 PUSH2 0x2328 SWAP1 PUSH2 0x1386 JUMP JUMPDEST SWAP8 PUSH1 0x40 MLOAD SWAP11 DUP12 SWAP11 PUSH1 0x20 DUP13 ADD PUSH32 0x7B202274726169745F74797065223A20226176617461725374796C65222C2022 SWAP1 MSTORE PUSH9 0x3B30B63AB291101D11 PUSH1 0xB9 SHL PUSH1 0x40 DUP14 ADD MSTORE PUSH1 0x49 DUP13 ADD PUSH2 0x2375 SWAP2 PUSH2 0x1E30 JUMP JUMPDEST PUSH32 0x227D2C207B2274726169745F74797065223A2022746F7054797065222C202276 DUP2 MSTORE PUSH8 0x30B63AB291101D11 PUSH1 0xC1 SHL PUSH1 0x20 DUP3 ADD MSTORE PUSH1 0x28 ADD PUSH2 0x23B5 SWAP2 PUSH2 0x1E30 JUMP JUMPDEST PUSH32 0x227D2C7B2274726169745F74797065223A202268616972436F6C6F72222C2022 DUP2 MSTORE PUSH9 0x3B30B63AB291101D11 PUSH1 0xB9 SHL PUSH1 0x20 DUP3 ADD MSTORE PUSH1 0x29 ADD PUSH2 0x23F6 SWAP2 PUSH2 0x1E30 JUMP JUMPDEST PUSH32 0x227D2C207B2274726169745F74797065223A202265796562726F775479706522 DUP2 MSTORE PUSH12 0x1610113B30B63AB291101D11 PUSH1 0xA1 SHL PUSH1 0x20 DUP3 ADD MSTORE PUSH1 0x2C ADD PUSH2 0x243A SWAP2 PUSH2 0x1E30 JUMP JUMPDEST PUSH32 0x227D2C207B2274726169745F74797065223A202265796554797065222C202276 DUP2 MSTORE PUSH8 0x30B63AB291101D11 PUSH1 0xC1 SHL PUSH1 0x20 DUP3 ADD MSTORE PUSH1 0x28 ADD PUSH2 0x247A SWAP2 PUSH2 0x1E30 JUMP JUMPDEST PUSH32 0x227D2C207B2274726169745F74797065223A20226163636573736F7269657354 DUP2 MSTORE PUSH16 0x3CB832911610113B30B63AB291101D11 PUSH1 0x81 SHL PUSH1 0x20 DUP3 ADD MSTORE PUSH1 0x30 ADD PUSH2 0x24C2 SWAP2 PUSH2 0x1E30 JUMP JUMPDEST PUSH32 0x227D2C7B2274726169745F74797065223A20226D6F75746854797065222C2022 DUP2 MSTORE PUSH9 0x3B30B63AB291101D11 PUSH1 0xB9 SHL PUSH1 0x20 DUP3 ADD MSTORE PUSH1 0x29 ADD PUSH2 0x2503 SWAP2 PUSH2 0x1E30 JUMP JUMPDEST PUSH32 0x227D2C207B2274726169745F74797065223A202266616369616C486169725479 DUP2 MSTORE PUSH15 0x3832911610113B30B63AB291101D11 PUSH1 0x89 SHL PUSH1 0x20 DUP3 ADD MSTORE PUSH1 0x2F ADD PUSH2 0x254A SWAP2 PUSH2 0x1E30 JUMP JUMPDEST PUSH32 0x227D2C207B2274726169745F74797065223A2022636C6F74686554797065222C DUP2 MSTORE PUSH11 0x10113B30B63AB291101D11 PUSH1 0xA9 SHL PUSH1 0x20 DUP3 ADD MSTORE PUSH1 0x2B ADD PUSH2 0x258D SWAP2 PUSH2 0x1E30 JUMP JUMPDEST PUSH32 0x227D2C207B2274726169745F74797065223A2022636C6F746865436F6C6F7222 DUP2 MSTORE PUSH12 0x1610113B30B63AB291101D11 PUSH1 0xA1 SHL PUSH1 0x20 DUP3 ADD MSTORE PUSH1 0x2C ADD PUSH2 0x25D1 SWAP2 PUSH2 0x1E30 JUMP JUMPDEST PUSH32 0x227D2C7B2274726169745F74797065223A20226772617068696354797065222C DUP2 MSTORE PUSH11 0x10113B30B63AB291101D11 PUSH1 0xA9 SHL PUSH1 0x20 DUP3 ADD MSTORE PUSH1 0x2B ADD PUSH2 0x2614 SWAP2 PUSH2 0x1E30 JUMP JUMPDEST PUSH3 0x113E9 PUSH1 0xED SHL DUP2 MSTORE PUSH1 0x3 ADD PUSH2 0x22AD JUMP JUMPDEST PUSH1 0x21 SWAP1 DUP1 MLOAD PUSH1 0x1 LT ISZERO PUSH2 0x2636 JUMPI ADD SWAP1 JUMP JUMPDEST PUSH2 0x1E15 PUSH2 0x1E19 JUMP JUMPDEST SWAP1 PUSH1 0x20 SWAP2 DUP1 MLOAD DUP3 LT ISZERO PUSH2 0x2650 JUMPI ADD ADD SWAP1 JUMP JUMPDEST PUSH2 0x2658 PUSH2 0x1E19 JUMP JUMPDEST ADD ADD SWAP1 JUMP JUMPDEST DUP1 ISZERO PUSH2 0x266B JUMPI JUMPDEST PUSH1 0x0 NOT ADD SWAP1 JUMP JUMPDEST PUSH2 0x2673 PUSH2 0x1DE6 JUMP JUMPDEST PUSH2 0x2664 JUMP JUMPDEST PUSH1 0x40 MLOAD SWAP1 PUSH2 0x2685 DUP3 PUSH2 0x529 JUMP JUMPDEST PUSH1 0x2A DUP3 MSTORE PUSH1 0x30 PUSH1 0x20 DUP4 ADD PUSH1 0x40 CALLDATASIZE DUP3 CALLDATACOPY DUP4 MLOAD ISZERO PUSH2 0x2709 JUMPI JUMPDEST MSTORE8 PUSH1 0x78 PUSH2 0x26A8 DUP4 PUSH2 0x2625 JUMP JUMPDEST MSTORE8 PUSH1 0x29 SWAP1 JUMPDEST PUSH1 0x1 DUP3 GT PUSH2 0x26BA JUMPI POP POP SWAP1 JUMP JUMPDEST DUP1 PUSH1 0xF PUSH2 0x26F6 SWAP3 AND PUSH1 0x10 DUP2 LT ISZERO PUSH2 0x26FC JUMPI JUMPDEST PUSH16 0x181899199A1A9B1B9C1CB0B131B232B3 PUSH1 0x81 SHL SWAP1 BYTE PUSH2 0x26EC DUP5 DUP7 PUSH2 0x263E JUMP JUMPDEST MSTORE8 PUSH1 0x4 SHR SWAP2 PUSH2 0x265D JUMP JUMPDEST SWAP1 PUSH2 0x26AD JUMP JUMPDEST PUSH2 0x2704 PUSH2 0x1E19 JUMP JUMPDEST PUSH2 0x26CC JUMP JUMPDEST PUSH2 0x2711 PUSH2 0x1E19 JUMP JUMPDEST PUSH2 0x269C JUMP INVALID DUP12 0xE0 SMOD SWAP13 MSTORE8 AND MSIZE EQ SGT DIFFICULTY 0xCD 0x1F 0xD0 LOG4 CALLCODE DUP5 NOT 0x49 PUSH32 0x9722A3DAAFE3B4186F6B6457E0DDF252AD1BE2C89B69C2B068FC378DAA952BA7 CALL PUSH4 0xC4A11628 CREATE2 GAS 0x4D CREATE2 0x23 0xB3 0xEF LOG2 PUSH5 0x6970667358 0x22 SLT KECCAK256 SWAP11 0xC1 0xCA TIMESTAMP 0xB7 COINBASE MSTORE8 SELFBALANCE MSIZE DUP16 MSTORE ADDRESS SIGNEXTEND 0xB5 SAR GT 0xD9 0x5D SIGNEXTEND DUP16 EQ LOG4 DUP2 LT PUSH4 0x3D2D707B 0xE0 PUSH27 0x7964736F6C63430008110033000000000000000000000000000000 "},"gasEstimates":{"creation":{"codeDepositCost":"2024800","executionCost":"infinite","totalCost":"infinite"},"external":{"approve(address,uint256)":"infinite","balanceOf(address)":"2642","createMintRequest(string,string,string,string,string,string,string,string,string,string,string,string,uint256,uint256,address)":"infinite","editAvatar(uint256,string,string,string,string,string,string,string,string,string,string,string,string)":"infinite","getApproved(uint256)":"4714","isApprovedForAll(address,address)":"2999","mintItem(string,string,string,string,string,string,string,string,string,string,address)":"infinite","myAvatars(address)":"infinite","name()":"infinite","owner()":"2535","ownerOf(uint256)":"2641","renounceOwnership()":"28311","safeTransferFrom(address,address,uint256)":"infinite","safeTransferFrom(address,address,uint256,bytes)":"infinite","setApprovalForAll(address,bool)":"26807","supportsInterface(bytes4)":"380","symbol()":"infinite","tokenURI(uint256)":"infinite","transferFrom(address,address,uint256)":"infinite","transferOwnership(address)":"28624"},"internal":{"getAttributes(uint256)":"infinite","getQueryString(uint256)":"infinite"}},"methodIdentifiers":{"approve(address,uint256)":"095ea7b3","balanceOf(address)":"70a08231","createMintRequest(string,string,string,string,string,string,string,string,string,string,string,string,uint256,uint256,address)":"3d0087cc","editAvatar(uint256,string,string,string,string,string,string,string,string,string,string,string,string)":"f20fd529","getApproved(uint256)":"081812fc","isApprovedForAll(address,address)":"e985e9c5","mintItem(string,string,string,string,string,string,string,string,string,string,address)":"768c8a0a","myAvatars(address)":"d94719dc","name()":"06fdde03","owner()":"8da5cb5b","ownerOf(uint256)":"6352211e","renounceOwnership()":"715018a6","safeTransferFrom(address,address,uint256)":"42842e0e","safeTransferFrom(address,address,uint256,bytes)":"b88d4fde","setApprovalForAll(address,bool)":"a22cb465","supportsInterface(bytes4)":"01ffc9a7","symbol()":"95d89b41","tokenURI(uint256)":"c87b56dd","transferFrom(address,address,uint256)":"23b872dd","transferOwnership(address)":"f2fde38b"}},"storageLayout":{"storage":[{"astId":138,"contract":"contracts/Minter.sol:Nimbus","label":"_name","offset":0,"slot":"0","type":"t_string_storage"},{"astId":140,"contract":"contracts/Minter.sol:Nimbus","label":"_symbol","offset":0,"slot":"1","type":"t_string_storage"},{"astId":144,"contract":"contracts/Minter.sol:Nimbus","label":"_owners","offset":0,"slot":"2","type":"t_mapping(t_uint256,t_address)"},{"astId":148,"contract":"contracts/Minter.sol:Nimbus","label":"_balances","offset":0,"slot":"3","type":"t_mapping(t_address,t_uint256)"},{"astId":152,"contract":"contracts/Minter.sol:Nimbus","label":"_tokenApprovals","offset":0,"slot":"4","type":"t_mapping(t_uint256,t_address)"},{"astId":158,"contract":"contracts/Minter.sol:Nimbus","label":"_operatorApprovals","offset":0,"slot":"5","type":"t_mapping(t_address,t_mapping(t_address,t_bool))"},{"astId":7,"contract":"contracts/Minter.sol:Nimbus","label":"_owner","offset":0,"slot":"6","type":"t_address"},{"astId":2842,"contract":"contracts/Minter.sol:Nimbus","label":"_tokenIds","offset":0,"slot":"7","type":"t_struct(Counter)1558_storage"},{"astId":2877,"contract":"contracts/Minter.sol:Nimbus","label":"_nftName","offset":0,"slot":"8","type":"t_mapping(t_uint256,t_string_storage)"},{"astId":2881,"contract":"contracts/Minter.sol:Nimbus","label":"_avatarStyle","offset":0,"slot":"9","type":"t_mapping(t_uint256,t_string_storage)"},{"astId":2885,"contract":"contracts/Minter.sol:Nimbus","label":"_topType","offset":0,"slot":"10","type":"t_mapping(t_uint256,t_string_storage)"},{"astId":2889,"contract":"contracts/Minter.sol:Nimbus","label":"_hairColor","offset":0,"slot":"11","type":"t_mapping(t_uint256,t_string_storage)"},{"astId":2893,"contract":"contracts/Minter.sol:Nimbus","label":"_eyebrowType","offset":0,"slot":"12","type":"t_mapping(t_uint256,t_string_storage)"},{"astId":2897,"contract":"contracts/Minter.sol:Nimbus","label":"_eyeType","offset":0,"slot":"13","type":"t_mapping(t_uint256,t_string_storage)"},{"astId":2901,"contract":"contracts/Minter.sol:Nimbus","label":"_accessoriesType","offset":0,"slot":"14","type":"t_mapping(t_uint256,t_string_storage)"},{"astId":2905,"contract":"contracts/Minter.sol:Nimbus","label":"_mouthType","offset":0,"slot":"15","type":"t_mapping(t_uint256,t_string_storage)"},{"astId":2909,"contract":"contracts/Minter.sol:Nimbus","label":"_facialHairType","offset":0,"slot":"16","type":"t_mapping(t_uint256,t_string_storage)"},{"astId":2913,"contract":"contracts/Minter.sol:Nimbus","label":"_clotheType","offset":0,"slot":"17","type":"t_mapping(t_uint256,t_string_storage)"},{"astId":2917,"contract":"contracts/Minter.sol:Nimbus","label":"_clotheColor","offset":0,"slot":"18","type":"t_mapping(t_uint256,t_string_storage)"},{"astId":2921,"contract":"contracts/Minter.sol:Nimbus","label":"_graphicType","offset":0,"slot":"19","type":"t_mapping(t_uint256,t_string_storage)"}],"types":{"t_address":{"encoding":"inplace","label":"address","numberOfBytes":"20"},"t_bool":{"encoding":"inplace","label":"bool","numberOfBytes":"1"},"t_mapping(t_address,t_bool)":{"encoding":"mapping","key":"t_address","label":"mapping(address => bool)","numberOfBytes":"32","value":"t_bool"},"t_mapping(t_address,t_mapping(t_address,t_bool))":{"encoding":"mapping","key":"t_address","label":"mapping(address => mapping(address => bool))","numberOfBytes":"32","value":"t_mapping(t_address,t_bool)"},"t_mapping(t_address,t_uint256)":{"encoding":"mapping","key":"t_address","label":"mapping(address => uint256)","numberOfBytes":"32","value":"t_uint256"},"t_mapping(t_uint256,t_address)":{"encoding":"mapping","key":"t_uint256","label":"mapping(uint256 => address)","numberOfBytes":"32","value":"t_address"},"t_mapping(t_uint256,t_string_storage)":{"encoding":"mapping","key":"t_uint256","label":"mapping(uint256 => string)","numberOfBytes":"32","value":"t_string_storage"},"t_string_storage":{"encoding":"bytes","label":"string","numberOfBytes":"32"},"t_struct(Counter)1558_storage":{"encoding":"inplace","label":"struct Counters.Counter","members":[{"astId":1557,"contract":"contracts/Minter.sol:Nimbus","label":"_value","offset":0,"slot":"0","type":"t_uint256"}],"numberOfBytes":"32"},"t_uint256":{"encoding":"inplace","label":"uint256","numberOfBytes":"32"}}},"userdoc":{"kind":"user","methods":{},"version":1}}}}